{
  "_format": "hh-sol-artifact-1",
  "contractName": "EuropePool",
  "sourceName": "contracts/EuropePool.sol",
  "abi": [
    {
      "inputs": [
        {
          "internalType": "contract IPool",
          "name": "_usdcPool",
          "type": "address"
        },
        {
          "internalType": "contract IRevolutSendVerifier",
          "name": "_verifier",
          "type": "address"
        },
        {
          "internalType": "contract IERC20",
          "name": "_ageuro",
          "type": "address"
        },
        {
          "internalType": "contract ISwapRouter",
          "name": "_swapRouter",
          "type": "address"
        },
        {
          "internalType": "contract IQuoterV2",
          "name": "_quoter",
          "type": "address"
        },
        {
          "internalType": "uint24",
          "name": "euroUsdcPoolFee",
          "type": "uint24"
        },
        {
          "internalType": "contract IERC20",
          "name": "_usdc",
          "type": "address"
        }
      ],
      "stateMutability": "nonpayable",
      "type": "constructor"
    },
    {
      "inputs": [],
      "name": "ageuro",
      "outputs": [
        {
          "internalType": "contract IERC20",
          "name": "",
          "type": "address"
        }
      ],
      "stateMutability": "view",
      "type": "function"
    },
    {
      "inputs": [],
      "name": "approveUsdcToUniswap",
      "outputs": [],
      "stateMutability": "nonpayable",
      "type": "function"
    },
    {
      "inputs": [
        {
          "internalType": "uint256",
          "name": "id",
          "type": "uint256"
        },
        {
          "internalType": "bytes",
          "name": "emailHash",
          "type": "bytes"
        }
      ],
      "name": "claimOrder",
      "outputs": [],
      "stateMutability": "nonpayable",
      "type": "function"
    },
    {
      "inputs": [
        {
          "internalType": "uint256",
          "name": "",
          "type": "uint256"
        }
      ],
      "name": "claimedOrders",
      "outputs": [
        {
          "internalType": "bytes",
          "name": "",
          "type": "bytes"
        }
      ],
      "stateMutability": "view",
      "type": "function"
    },
    {
      "inputs": [
        {
          "components": [
            {
              "internalType": "uint256[2]",
              "name": "a",
              "type": "uint256[2]"
            },
            {
              "internalType": "uint256[2][2]",
              "name": "b",
              "type": "uint256[2][2]"
            },
            {
              "internalType": "uint256[2]",
              "name": "c",
              "type": "uint256[2]"
            }
          ],
          "internalType": "struct IPool.Proof",
          "name": "proof",
          "type": "tuple"
        },
        {
          "internalType": "uint256[31]",
          "name": "inputs",
          "type": "uint256[31]"
        },
        {
          "internalType": "string",
          "name": "xBorderRecieverAddress",
          "type": "string"
        }
      ],
      "name": "completeCrossChainOrder",
      "outputs": [],
      "stateMutability": "nonpayable",
      "type": "function"
    },
    {
      "inputs": [
        {
          "components": [
            {
              "internalType": "uint256[2]",
              "name": "a",
              "type": "uint256[2]"
            },
            {
              "internalType": "uint256[2][2]",
              "name": "b",
              "type": "uint256[2][2]"
            },
            {
              "internalType": "uint256[2]",
              "name": "c",
              "type": "uint256[2]"
            }
          ],
          "internalType": "struct IPool.Proof",
          "name": "proof",
          "type": "tuple"
        },
        {
          "internalType": "uint256[31]",
          "name": "inputs",
          "type": "uint256[31]"
        }
      ],
      "name": "completeOnRampOrder",
      "outputs": [],
      "stateMutability": "nonpayable",
      "type": "function"
    },
    {
      "inputs": [
        {
          "internalType": "uint256[5]",
          "name": "packedBytes",
          "type": "uint256[5]"
        },
        {
          "internalType": "uint256",
          "name": "maxBytes",
          "type": "uint256"
        }
      ],
      "name": "convertPackedBytesToBytes",
      "outputs": [
        {
          "internalType": "string",
          "name": "extractedString",
          "type": "string"
        }
      ],
      "stateMutability": "pure",
      "type": "function"
    },
    {
      "inputs": [
        {
          "internalType": "uint256",
          "name": "amount",
          "type": "uint256"
        },
        {
          "internalType": "string",
          "name": "offChainPaymentAddress",
          "type": "string"
        }
      ],
      "name": "createOrder",
      "outputs": [],
      "stateMutability": "nonpayable",
      "type": "function"
    },
    {
      "inputs": [
        {
          "internalType": "uint256",
          "name": "id",
          "type": "uint256"
        }
      ],
      "name": "getOrder",
      "outputs": [
        {
          "components": [
            {
              "internalType": "uint256",
              "name": "id",
              "type": "uint256"
            },
            {
              "internalType": "uint256",
              "name": "amount",
              "type": "uint256"
            },
            {
              "internalType": "string",
              "name": "offChainPaymentAddress",
              "type": "string"
            },
            {
              "internalType": "bool",
              "name": "claimed",
              "type": "bool"
            },
            {
              "internalType": "uint56",
              "name": "completedAt",
              "type": "uint56"
            },
            {
              "internalType": "uint256[3]",
              "name": "takerEmailHash",
              "type": "uint256[3]"
            }
          ],
          "internalType": "struct IPool.Order",
          "name": "",
          "type": "tuple"
        }
      ],
      "stateMutability": "view",
      "type": "function"
    },
    {
      "inputs": [
        {
          "internalType": "uint256",
          "name": "euroAmount",
          "type": "uint256"
        }
      ],
      "name": "matchOrder",
      "outputs": [
        {
          "internalType": "uint256",
          "name": "orderId",
          "type": "uint256"
        },
        {
          "internalType": "string",
          "name": "offChainPaymentAddress",
          "type": "string"
        },
        {
          "internalType": "uint256",
          "name": "outputAmount",
          "type": "uint256"
        }
      ],
      "stateMutability": "nonpayable",
      "type": "function"
    },
    {
      "inputs": [],
      "name": "numOrders",
      "outputs": [
        {
          "internalType": "uint256",
          "name": "",
          "type": "uint256"
        }
      ],
      "stateMutability": "view",
      "type": "function"
    },
    {
      "inputs": [
        {
          "internalType": "uint256",
          "name": "",
          "type": "uint256"
        }
      ],
      "name": "orders",
      "outputs": [
        {
          "internalType": "uint256",
          "name": "id",
          "type": "uint256"
        },
        {
          "internalType": "uint256",
          "name": "amount",
          "type": "uint256"
        },
        {
          "internalType": "string",
          "name": "offChainPaymentAddress",
          "type": "string"
        },
        {
          "internalType": "bool",
          "name": "claimed",
          "type": "bool"
        },
        {
          "internalType": "uint56",
          "name": "completedAt",
          "type": "uint56"
        }
      ],
      "stateMutability": "view",
      "type": "function"
    },
    {
      "inputs": [],
      "name": "quoter",
      "outputs": [
        {
          "internalType": "contract IQuoterV2",
          "name": "",
          "type": "address"
        }
      ],
      "stateMutability": "view",
      "type": "function"
    },
    {
      "inputs": [
        {
          "internalType": "uint256",
          "name": "",
          "type": "uint256"
        }
      ],
      "name": "revolutServerKeys",
      "outputs": [
        {
          "internalType": "uint256",
          "name": "",
          "type": "uint256"
        }
      ],
      "stateMutability": "view",
      "type": "function"
    },
    {
      "inputs": [
        {
          "internalType": "string",
          "name": "s",
          "type": "string"
        }
      ],
      "name": "stringToUint256",
      "outputs": [
        {
          "internalType": "uint256",
          "name": "",
          "type": "uint256"
        }
      ],
      "stateMutability": "pure",
      "type": "function"
    },
    {
      "inputs": [],
      "name": "swapRouter",
      "outputs": [
        {
          "internalType": "contract ISwapRouter",
          "name": "",
          "type": "address"
        }
      ],
      "stateMutability": "view",
      "type": "function"
    },
    {
      "inputs": [
        {
          "internalType": "contract IERC20",
          "name": "_ageuro",
          "type": "address"
        }
      ],
      "name": "updateEuro",
      "outputs": [],
      "stateMutability": "nonpayable",
      "type": "function"
    },
    {
      "inputs": [
        {
          "internalType": "uint24",
          "name": "_usdcEuroPoolFee",
          "type": "uint24"
        }
      ],
      "name": "updateEuroUsdcPoolFee",
      "outputs": [],
      "stateMutability": "nonpayable",
      "type": "function"
    },
    {
      "inputs": [
        {
          "internalType": "contract IQuoterV2",
          "name": "_quoter",
          "type": "address"
        }
      ],
      "name": "updateQuoter",
      "outputs": [],
      "stateMutability": "nonpayable",
      "type": "function"
    },
    {
      "inputs": [
        {
          "internalType": "contract ISwapRouter",
          "name": "_swapRouter",
          "type": "address"
        }
      ],
      "name": "updateSwapRouter",
      "outputs": [],
      "stateMutability": "nonpayable",
      "type": "function"
    },
    {
      "inputs": [
        {
          "internalType": "contract IERC20",
          "name": "_usdc",
          "type": "address"
        }
      ],
      "name": "updateUSDC",
      "outputs": [],
      "stateMutability": "nonpayable",
      "type": "function"
    },
    {
      "inputs": [
        {
          "internalType": "contract IPool",
          "name": "_usdcPool",
          "type": "address"
        }
      ],
      "name": "updateUsdcPool",
      "outputs": [],
      "stateMutability": "nonpayable",
      "type": "function"
    },
    {
      "inputs": [
        {
          "internalType": "contract IRevolutSendVerifier",
          "name": "_verifier",
          "type": "address"
        }
      ],
      "name": "updateVerifier",
      "outputs": [],
      "stateMutability": "nonpayable",
      "type": "function"
    },
    {
      "inputs": [],
      "name": "usdc",
      "outputs": [
        {
          "internalType": "contract IERC20",
          "name": "",
          "type": "address"
        }
      ],
      "stateMutability": "view",
      "type": "function"
    },
    {
      "inputs": [],
      "name": "usdcEuroPoolFee",
      "outputs": [
        {
          "internalType": "uint24",
          "name": "",
          "type": "uint24"
        }
      ],
      "stateMutability": "view",
      "type": "function"
    },
    {
      "inputs": [],
      "name": "usdcPool",
      "outputs": [
        {
          "internalType": "contract IPool",
          "name": "",
          "type": "address"
        }
      ],
      "stateMutability": "view",
      "type": "function"
    },
    {
      "inputs": [],
      "name": "verifier",
      "outputs": [
        {
          "internalType": "contract IRevolutSendVerifier",
          "name": "",
          "type": "address"
        }
      ],
      "stateMutability": "view",
      "type": "function"
    }
  ],
  "bytecode": "0x6102806040526f01058481b16c0c6bc68b612881d6910960809081526f017fd23efa54659bcfc805b3d06649d660a0526f0100aa2baa3c1b6ef87468ec5bc14f7360c0526f01c43bddf64aeafd7faffc39c2911ba560e0526f016ad3c248dd353b192e38cccf34a01f610100526f01d80b82a4f6cead025d04200087be3f610120526f01b87939bd34a27fa069022ecf22cd31610140526f01d73d3916dbbf584bc426b675efa1f46101605266ac4c64b591c8216101805260006101a08190526101c08190526101e081905261020081905261022081905261024081905261026052620000f1906009906010620001b7565b50348015620000ff57600080fd5b50604051620023503803806200235083398101604081905262000122916200021c565b600280546001600160a01b03199081166001600160a01b03998a16179091556003805482169789169790971790965560048054871695881695909517909455600580548616938716939093179092556006805485169186169190911790556007805462ffffff60a01b1916600160a01b62ffffff909316929092029190911790921692169190911790556001600855620002e5565b8260118101928215620001f3579160200282015b82811115620001f357825182906001600160801b0316905591602001919060010190620001cb565b506200020192915062000205565b5090565b5b8082111562000201576000815560010162000206565b600080600080600080600060e0888a03121562000237578283fd5b87516200024481620002cc565b60208901519097506200025781620002cc565b60408901519096506200026a81620002cc565b60608901519095506200027d81620002cc565b60808901519094506200029081620002cc565b60a089015190935062ffffff81168114620002a9578283fd5b60c0890151909250620002bc81620002cc565b8091505092959891949750929550565b6001600160a01b0381168114620002e257600080fd5b50565b61205b80620002f56000396000f3fe608060405234801561001057600080fd5b50600436106101a95760003560e01c8063910c6855116100f9578063c31c9c0711610097578063d09ef24111610071578063d09ef24114610375578063e49bd61e14610395578063fa79ad971461039d578063fb16a44e146103a5576101a9565b8063c31c9c0714610352578063c5d1a7e91461035a578063c6bbd5a71461036d576101a9565b8063ac0460a6116100d3578063ac0460a614610304578063ac5d372314610317578063b727bc4a1461032a578063b98b677f1461033f576101a9565b8063910c6855146102ba57806397fc007c146102cd578063a85c38ef146102e0576101a9565b80632b7ac3f311610166578063426172d611610140578063426172d61461026a57806345d537881461027d5780635b5545e514610285578063887012c114610298576101a9565b80632b7ac3f31461022d578063340d86b7146102425780633e413bee14610262576101a9565b806303b390a7146101ae578063069e64c4146101c35780630e540b3a146101ec5780631348eb5b146101ff5780631ad414f91461021257806323a993ad1461021a575b600080fd5b6101c16101bc366004611a59565b6103b8565b005b6101d66101d13660046118be565b610432565b6040516101e39190611bda565b60405180910390f35b6101c16101fa366004611ab1565b6105cd565b6101c161020d366004611918565b61072f565b6101c1610751565b6101c1610228366004611918565b6107de565b610235610800565b6040516101e39190611bed565b610255610250366004611a29565b61080f565b6040516101e39190611f5e565b610235610826565b6101c1610278366004611918565b610835565b610255610857565b6101c16102933660046119a5565b61085d565b6102ab6102a6366004611a29565b610983565b6040516101e393929190611f67565b6101c16102c8366004611918565b610b28565b6101c16102db366004611918565b610b4a565b6102f36102ee366004611a29565b610b6c565b6040516101e3959493929190611f90565b6101d6610312366004611a29565b610c2e565b610255610325366004611934565b610cc8565b610332610d71565b6040516101e39190611f4e565b6101c161034d366004611918565b610d83565b610235610da5565b6101c161036836600461196f565b610db4565b610235610e81565b610388610383366004611a29565b610e90565b6040516101e39190611e80565b610235610fb2565b610235610fc1565b6101c16103b3366004611a06565b610fd0565b60008281526020819052604090206003015460ff16156103f35760405162461bcd60e51b81526004016103ea90611db5565b60405180910390fd5b6000828152600160209081526040909120825161041292840190611559565b50506000908152602081905260409020600301805460ff19166001179055565b604080516023808252606082810190935260009182916020820181803683370190505090506000805b60058161ffff16101561057e576000878261ffff166005811061047a57fe5b602002015160408051600780825261010082019092529192506000919081602001602082028036833701905050905060005b60078110156104e2578060080283901c8282815181106104c857fe5b60ff909216602092830291909101909101526001016104ac565b5060005b60078110156105735760008282815181106104fd57fe5b602002602001015160ff16905080600014610551578060f81b87878151811061052257fe5b60200101906001600160f81b031916908160001a905350600195860195881661054c576001880197505b610563565b60018089161415610563576001880197505b5060089290921c916001016104e6565b50505060010161045b565b5081600260ff8516146105a35760405162461bcd60e51b81526004016103ea90611d1c565b858211156105c35760405162461bcd60e51b81526004016103ea90611c89565b9695505050505050565b6040805160c081018252600854808252602080830186815283850186815260006060808701829052608087018290528751908101885281815280850182905280880182905260a087015293845283835294909220835181559151600183015592518051929391926106449260028501920190611559565b50606082015160038083018054608086015166ffffffffffffff166101000267ffffffffffffff001994151560ff1990921691909117939093169290921790915560a0830151610699916004840191906115e5565b5050600480546040516323b872dd60e01b81526001600160a01b0390911692506323b872dd916106cf9133913091889101611b9d565b602060405180830381600087803b1580156106e957600080fd5b505af11580156106fd573d6000803e3d6000fd5b505050506040513d601f19601f8201168201806040525081019061072191906118f8565b505060088054600101905550565b600480546001600160a01b0319166001600160a01b0392909216919091179055565b60075460055460405163095ea7b360e01b81526001600160a01b039283169263095ea7b3926107899291169060001990600401611bc1565b602060405180830381600087803b1580156107a357600080fd5b505af11580156107b7573d6000803e3d6000fd5b505050506040513d601f19601f820116820180604052508101906107db91906118f8565b50565b600280546001600160a01b0319166001600160a01b0392909216919091179055565b6003546001600160a01b031681565b6009816011811061081f57600080fd5b0154905081565b6007546001600160a01b031681565b600680546001600160a01b0319166001600160a01b0392909216919091179055565b60085481565b60006108698484610ff4565b60008181526020818152604080832060038101805467ffffffffffffff0019166101004266ffffffffffffff811682029290921790925583519182018452600480546001600160a01b03908116845260075480821685890152600160a01b900462ffffff168487015233606085015260808401929092528787529486905260019092015460a082015260c0810185905260e08101859052600554925163414bf38960e01b81529596509491169163414bf3899161092891869101611e17565b602060405180830381600087803b15801561094257600080fd5b505af1158015610956573d6000803e3d6000fd5b505050506040513d601f19601f8201168201806040525081019061097a9190611a41565b50505050505050565b6000606081805b83811015610a58576000818152602081905260409020600101548511610a50576000818152602081815260409182902080546002918201805485516001821615610100026000190190911693909304601f810185900485028401850190955284835290975090929091830182828015610a445780601f10610a1957610100808354040283529160200191610a44565b820191906000526020600020905b815481529060010190602001808311610a2757829003601f168201915b50505050509250610a58565b60010161098a565b506040805160a081018252600480546001600160a01b0390811683526007548082166020850152838501899052600160a01b900462ffffff1660608401526000608084018190526006549451636352813560e11b81529394909391169163c6a5026a91610ac791869101611f06565b608060405180830381600087803b158015610ae157600080fd5b505af1158015610af5573d6000803e3d6000fd5b505050506040513d601f19601f82011682018060405250810190610b199190611aec565b50969895975090955050505050565b600780546001600160a01b0319166001600160a01b0392909216919091179055565b600380546001600160a01b0319166001600160a01b0392909216919091179055565b6000602081815291815260409081902080546001808301546002808501805487519481161561010002600019011691909104601f81018890048802840188019096528583529295909491929190830182828015610c0a5780601f10610bdf57610100808354040283529160200191610c0a565b820191906000526020600020905b815481529060010190602001808311610bed57829003601f168201915b5050506003909301549192505060ff81169066ffffffffffffff6101009091041685565b60016020818152600092835260409283902080548451600294821615610100026000190190911693909304601f8101839004830284018301909452838352919290830182828015610cc05780601f10610c9557610100808354040283529160200191610cc0565b820191906000526020600020905b815481529060010190602001808311610ca357829003601f168201915b505050505081565b6000818180805b8351811015610d67576030848281518110610ce657fe5b016020015160f81c10801590610d1057506039848281518110610d0557fe5b016020015160f81c11155b15610d5f578291506030848281518110610d2657fe5b602001015160f81c60f81b60f81c0360ff1683600a0201925081831015610d5f5760405162461bcd60e51b81526004016103ea90611dec565b600101610ccf565b5090949350505050565b600754600160a01b900462ffffff1681565b600580546001600160a01b0319166001600160a01b0392909216919091179055565b6005546001600160a01b031681565b6000610dc08383610ff4565b6000818152602081905260409081902060038101805467ffffffffffffff0019166101004266ffffffffffffff160217905560048054600190920154925163a9059cbb60e01b81529394506001600160a01b039091169263a9059cbb92610e2992339201611bc1565b602060405180830381600087803b158015610e4357600080fd5b505af1158015610e57573d6000803e3d6000fd5b505050506040513d601f19601f82011682018060405250810190610e7b91906118f8565b50505050565b6006546001600160a01b031681565b610e98611612565b60008281526020818152604091829020825160c08101845281548152600180830154828501526002808401805487519381161561010002600019011691909104601f81018690048602830186018752808352929593949386019391929091830182828015610f475780601f10610f1c57610100808354040283529160200191610f47565b820191906000526020600020905b815481529060010190602001808311610f2a57829003601f168201915b505050918352505060038281015460ff811615156020840152610100900466ffffffffffffff1660408084019190915280516060808201928390529093019291600485019182845b815481526020019060010190808311610f8f575050505050815250509050919050565b6002546001600160a01b031681565b6004546001600160a01b031681565b6007805462ffffff909216600160a01b0262ffffff60a01b19909216919091179055565b6000806000806000611006878761116d565b6000818152602081905260409020600301549397509195509350915060ff166110415760405162461bcd60e51b81526004016103ea90611c38565b600081815260208190526040902060030154610100900466ffffffffffffff161561107e5760405162461bcd60e51b81526004016103ea90611c01565b600081815260208181526040918290206002908101805484516001821615610100026000190190911692909204601f8101849004840283018401909452838252879361111f938301828280156111155780601f106110ea57610100808354040283529160200191611115565b820191906000526020600020905b8154815290600101906020018083116110f857829003601f168201915b5050505050610cc8565b1461113c5760405162461bcd60e51b81526004016103ea90611cb4565b6000818152602081905260409020600101548310156105c35760405162461bcd60e51b81526004016103ea90611d68565b6000806060600061117c611658565b60005b60058110156111b2578681601f811061119457fe5b60200201518282600581106111a557fe5b602002015260010161117f565b5060006111c361032583601e610432565b905080670de0b6b3a76400000294506112006040518060400160405280600c81526020016b032bab937a0b6b7bab73a1d160a51b81525086611369565b611208611658565b60005b6005811015611241578881600501601f811061122357fe5b602002015182826005811061123457fe5b602002015260010161120b565b5061125061032582601e610432565b96506112886040518060400160405280601481526020017303932b1b2b4bb32b924b232b73a34b334b2b91d160651b81525088611369565b6101408801516101608901516101808a01516040516112ac93929190602001611b87565b604051602081830303815290604052945060005b60118110156113545761134c6040518060400160405280601081526020016f034b7383aba39adb49015901899ae9d160851b8152508a83600d01601f811061130457fe5b60200201516040518060400160405280601681526020017503932bb37b63aba29b2b93b32b925b2bcb9adb4ae9d160551b8152506009856011811061134557fe5b015461141b565b6001016112c0565b5050506103c090950151939692955090935050565b61141782826040516024018080602001838152602001828103825284818151815260200191508051906020019080838360005b838110156113b457818101518382015260200161139c565b50505050905090810190601f1680156113e15780820380516001836020036101000a031916815260200191505b5060408051601f198184030181529190526020810180516001600160e01b0316632d839cb360e21b179052935061153892505050565b5050565b610e7b84848484604051602401808060200185815260200180602001848152602001838103835287818151815260200191508051906020019080838360005b8381101561147257818101518382015260200161145a565b50505050905090810190601f16801561149f5780820380516001836020036101000a031916815260200191505b50838103825285518152855160209182019187019080838360005b838110156114d25781810151838201526020016114ba565b50505050905090810190601f1680156114ff5780820380516001836020036101000a031916815260200191505b5060408051601f198184030181529190526020810180516001600160e01b031663c67ea9d160e01b179052965061153895505050505050565b60006a636f6e736f6c652e6c6f679050600080835160208501845afa505050565b828054600181600116156101000203166002900490600052602060002090601f01602090048101928261158f57600085556115d5565b82601f106115a857805160ff19168380011785556115d5565b828001600101855582156115d5579182015b828111156115d55782518255916020019190600101906115ba565b506115e1929150611676565b5090565b82600381019282156115d557916020028201828111156115d55782518255916020019190600101906115ba565b6040518060c00160405280600081526020016000815260200160608152602001600015158152602001600066ffffffffffffff16815260200161165361168b565b905290565b6040518060a001604052806005906020820280368337509192915050565b5b808211156115e15760008155600101611677565b60405180606001604052806003906020820280368337509192915050565b60006116bc6116b784611ff5565b611fd1565b90508082602086818702860111156116d357600080fd5b60005b868110156116f2578235845292810192918101916001016116d6565b505050509392505050565b600067ffffffffffffffff83111561171157fe5b611724601f8401601f1916602001611fd1565b905082815283838301111561173857600080fd5b828260208301376000602084830101529392505050565b600082601f83011261175f578081fd5b6040516040810181811067ffffffffffffffff8211171561177c57fe5b8060405250808385604086011115611792578384fd5b835b60028110156117b3578135835260209283019290910190600101611794565b509195945050505050565b600082601f8301126117ce578081fd5b6117da83601f846116a9565b9392505050565b600082601f8301126117f1578081fd5b6117da838335602085016116fd565b60006101008284031215611812578081fd5b604080516060810181811067ffffffffffffffff8211171561183057fe5b825291508161183f858561174f565b815284605f85011261185057600080fd5b600261185e6116b782611ff5565b8084870160c088018981111561187357600080fd5b60005b8581101561189c576118888b8461174f565b855260209094019391870191600101611876565b508260208701526118ad8a8261174f565b878701525050505050505092915050565b60008060c083850312156118d0578182fd5b83601f8401126118de578182fd5b6118ea846005856116a9565b9460a0939093013593505050565b600060208284031215611909578081fd5b815180151581146117da578182fd5b600060208284031215611929578081fd5b81356117da81612010565b600060208284031215611945578081fd5b813567ffffffffffffffff81111561195b578182fd5b611967848285016117e1565b949350505050565b6000806104e08385031215611982578182fd5b61198c8484611800565b915061199c8461010085016117be565b90509250929050565b600080600061050084860312156119ba578081fd5b6119c48585611800565b92506119d48561010086016117be565b91506104e084013567ffffffffffffffff8111156119f0578182fd5b6119fc868287016117e1565b9150509250925092565b600060208284031215611a17578081fd5b813562ffffff811681146117da578182fd5b600060208284031215611a3a578081fd5b5035919050565b600060208284031215611a52578081fd5b5051919050565b60008060408385031215611a6b578182fd5b82359150602083013567ffffffffffffffff811115611a88578182fd5b8301601f81018513611a98578182fd5b611aa7858235602084016116fd565b9150509250929050565b60008060408385031215611ac3578182fd5b82359150602083013567ffffffffffffffff811115611ae0578182fd5b611aa7858286016117e1565b60008060008060808587031215611b01578182fd5b845193506020850151611b1381612010565b604086015190935063ffffffff81168114611b2c578283fd5b6060959095015193969295505050565b60008151808452815b81811015611b6157602081850181015186830182015201611b45565b81811115611b725782602083870101525b50601f01601f19169290920160200192915050565b9283526020830191909152604082015260600190565b6001600160a01b039384168152919092166020820152604081019190915260600190565b6001600160a01b03929092168252602082015260400190565b6000602082526117da6020830184611b3c565b6001600160a01b0391909116815260200190565b6020808252601c908201527f4f72646572206d757374206e6f7420626520636f6d706c657465642e00000000604082015260600190565b60208082526031908201527f4f72646572206d75737420626520636c61696d6564206265666f72652069742060408201527031b0b71031329031b7b6b83632ba32b21760791b606082015260800190565b60208082526011908201527056656e6d6f20696420746f6f206c6f6e6760781b604082015260600190565b60208082526042908201527f52656365697665722061646472657373206d757374206d61746368207468652060408201527f6f6666636861696e207061796d656e7420726563656976657220616464726573606082015261399760f11b608082015260a00190565b6020808252602c908201527f496e76616c69642066696e616c207374617465206f66207061636b656420627960408201526b1d195cc81a5b88195b585a5b60a21b606082015260800190565b6020808252602d908201527f416d6f756e74206d7573742062652067726561746572207468616e207468652060408201526c37b93232b91030b6b7bab73a1760991b606082015260800190565b6020808252601f908201527f4f726465722068617320616c7265616479206265656e20636c61696d65642e00604082015260600190565b60208082526011908201527013dd995c999b1bddc819195d1958dd1959607a1b604082015260600190565b81516001600160a01b03908116825260208084015182169083015260408084015162ffffff16908301526060808401518216908301526080808401519083015260a0838101519083015260c0808401519083015260e09283015116918101919091526101000190565b6000602080835283518184015280840151604084015260408401516101006060850152611eb1610120850182611b3c565b905060608501511515608085015266ffffffffffffff60808601511660a085015260a085015160c08501845b6003811015611efa57825182529184019190840190600101611edd565b50919695505050505050565b81516001600160a01b0390811682526020808401518216908301526040808401519083015260608084015162ffffff1690830152608092830151169181019190915260a00190565b62ffffff91909116815260200190565b90815260200190565b600084825260606020830152611f806060830185611b3c565b9050826040830152949350505050565b600086825285602083015260a06040830152611faf60a0830186611b3c565b93151560608301525066ffffffffffffff919091166080909101529392505050565b60405181810167ffffffffffffffff81118282101715611fed57fe5b604052919050565b600067ffffffffffffffff82111561200957fe5b5060200290565b6001600160a01b03811681146107db57600080fdfea26469706673582212206a76ebb9bcd5c625eccb2b7d2e808dd4cfe93109c3f959bb9eca5057e48a8ab164736f6c63430007060033",
  "linkReferences": {},
  "deployedLinkReferences": {}
}