{
  "_format": "hh-sol-artifact-1",
  "contractName": "USDCPool",
  "sourceName": "contracts/USDCPool.sol",
  "abi": [
    {
      "inputs": [
        {
          "internalType": "contract IPool",
          "name": "_euroPool",
          "type": "address"
        },
        {
          "internalType": "contract IVenmoSendVerifier",
          "name": "_verifier",
          "type": "address"
        },
        {
          "internalType": "contract IERC20",
          "name": "_usdc",
          "type": "address"
        },
        {
          "internalType": "contract ISwapRouter",
          "name": "_swapRouter",
          "type": "address"
        },
        {
          "internalType": "contract IQuoterV2",
          "name": "_quoter",
          "type": "address"
        },
        {
          "internalType": "uint24",
          "name": "euroUsdcPoolFee",
          "type": "uint24"
        },
        {
          "internalType": "contract IERC20",
          "name": "_euro",
          "type": "address"
        }
      ],
      "stateMutability": "nonpayable",
      "type": "constructor"
    },
    {
      "inputs": [],
      "name": "approveEuroToUniswap",
      "outputs": [],
      "stateMutability": "nonpayable",
      "type": "function"
    },
    {
      "inputs": [
        {
          "internalType": "uint256",
          "name": "id",
          "type": "uint256"
        },
        {
          "internalType": "bytes",
          "name": "emailHash",
          "type": "bytes"
        }
      ],
      "name": "claimOrder",
      "outputs": [],
      "stateMutability": "nonpayable",
      "type": "function"
    },
    {
      "inputs": [
        {
          "internalType": "uint256",
          "name": "",
          "type": "uint256"
        }
      ],
      "name": "claimedOrders",
      "outputs": [
        {
          "internalType": "bytes",
          "name": "",
          "type": "bytes"
        }
      ],
      "stateMutability": "view",
      "type": "function"
    },
    {
      "inputs": [
        {
          "components": [
            {
              "internalType": "uint256[2]",
              "name": "a",
              "type": "uint256[2]"
            },
            {
              "internalType": "uint256[2][2]",
              "name": "b",
              "type": "uint256[2][2]"
            },
            {
              "internalType": "uint256[2]",
              "name": "c",
              "type": "uint256[2]"
            }
          ],
          "internalType": "struct IPool.Proof",
          "name": "proof",
          "type": "tuple"
        },
        {
          "internalType": "uint256[31]",
          "name": "inputs",
          "type": "uint256[31]"
        },
        {
          "internalType": "string",
          "name": "xBorderRecieverAddress",
          "type": "string"
        }
      ],
      "name": "completeCrossChainOrder",
      "outputs": [],
      "stateMutability": "nonpayable",
      "type": "function"
    },
    {
      "inputs": [
        {
          "components": [
            {
              "internalType": "uint256[2]",
              "name": "a",
              "type": "uint256[2]"
            },
            {
              "internalType": "uint256[2][2]",
              "name": "b",
              "type": "uint256[2][2]"
            },
            {
              "internalType": "uint256[2]",
              "name": "c",
              "type": "uint256[2]"
            }
          ],
          "internalType": "struct IPool.Proof",
          "name": "proof",
          "type": "tuple"
        },
        {
          "internalType": "uint256[31]",
          "name": "inputs",
          "type": "uint256[31]"
        }
      ],
      "name": "completeOnRampOrder",
      "outputs": [],
      "stateMutability": "nonpayable",
      "type": "function"
    },
    {
      "inputs": [
        {
          "internalType": "uint256[5]",
          "name": "packedBytes",
          "type": "uint256[5]"
        },
        {
          "internalType": "uint256",
          "name": "maxBytes",
          "type": "uint256"
        }
      ],
      "name": "convertPackedBytesToBytes",
      "outputs": [
        {
          "internalType": "string",
          "name": "extractedString",
          "type": "string"
        }
      ],
      "stateMutability": "pure",
      "type": "function"
    },
    {
      "inputs": [
        {
          "internalType": "uint256",
          "name": "amount",
          "type": "uint256"
        },
        {
          "internalType": "string",
          "name": "offChainPaymentAddress",
          "type": "string"
        }
      ],
      "name": "createOrder",
      "outputs": [],
      "stateMutability": "nonpayable",
      "type": "function"
    },
    {
      "inputs": [],
      "name": "euro",
      "outputs": [
        {
          "internalType": "contract IERC20",
          "name": "",
          "type": "address"
        }
      ],
      "stateMutability": "view",
      "type": "function"
    },
    {
      "inputs": [],
      "name": "euroPool",
      "outputs": [
        {
          "internalType": "contract IPool",
          "name": "",
          "type": "address"
        }
      ],
      "stateMutability": "view",
      "type": "function"
    },
    {
      "inputs": [
        {
          "internalType": "uint256",
          "name": "id",
          "type": "uint256"
        }
      ],
      "name": "getOrder",
      "outputs": [
        {
          "components": [
            {
              "internalType": "uint256",
              "name": "id",
              "type": "uint256"
            },
            {
              "internalType": "uint256",
              "name": "amount",
              "type": "uint256"
            },
            {
              "internalType": "string",
              "name": "offChainPaymentAddress",
              "type": "string"
            },
            {
              "internalType": "bool",
              "name": "claimed",
              "type": "bool"
            },
            {
              "internalType": "uint56",
              "name": "completedAt",
              "type": "uint56"
            },
            {
              "internalType": "uint256[3]",
              "name": "takerEmailHash",
              "type": "uint256[3]"
            }
          ],
          "internalType": "struct IPool.Order",
          "name": "",
          "type": "tuple"
        }
      ],
      "stateMutability": "view",
      "type": "function"
    },
    {
      "inputs": [
        {
          "internalType": "uint256",
          "name": "usdcAmount",
          "type": "uint256"
        }
      ],
      "name": "matchOrder",
      "outputs": [
        {
          "internalType": "uint256",
          "name": "orderId",
          "type": "uint256"
        },
        {
          "internalType": "string",
          "name": "offChainPaymentAddress",
          "type": "string"
        },
        {
          "internalType": "uint256",
          "name": "outputAmount",
          "type": "uint256"
        }
      ],
      "stateMutability": "nonpayable",
      "type": "function"
    },
    {
      "inputs": [],
      "name": "numOrders",
      "outputs": [
        {
          "internalType": "uint256",
          "name": "",
          "type": "uint256"
        }
      ],
      "stateMutability": "view",
      "type": "function"
    },
    {
      "inputs": [
        {
          "internalType": "uint256",
          "name": "",
          "type": "uint256"
        }
      ],
      "name": "orders",
      "outputs": [
        {
          "internalType": "uint256",
          "name": "id",
          "type": "uint256"
        },
        {
          "internalType": "uint256",
          "name": "amount",
          "type": "uint256"
        },
        {
          "internalType": "string",
          "name": "offChainPaymentAddress",
          "type": "string"
        },
        {
          "internalType": "bool",
          "name": "claimed",
          "type": "bool"
        },
        {
          "internalType": "uint56",
          "name": "completedAt",
          "type": "uint56"
        }
      ],
      "stateMutability": "view",
      "type": "function"
    },
    {
      "inputs": [],
      "name": "quoter",
      "outputs": [
        {
          "internalType": "contract IQuoterV2",
          "name": "",
          "type": "address"
        }
      ],
      "stateMutability": "view",
      "type": "function"
    },
    {
      "inputs": [
        {
          "internalType": "string",
          "name": "s",
          "type": "string"
        }
      ],
      "name": "stringToUint256",
      "outputs": [
        {
          "internalType": "uint256",
          "name": "",
          "type": "uint256"
        }
      ],
      "stateMutability": "pure",
      "type": "function"
    },
    {
      "inputs": [],
      "name": "swapRouter",
      "outputs": [
        {
          "internalType": "contract ISwapRouter",
          "name": "",
          "type": "address"
        }
      ],
      "stateMutability": "view",
      "type": "function"
    },
    {
      "inputs": [
        {
          "internalType": "contract IERC20",
          "name": "_euro",
          "type": "address"
        }
      ],
      "name": "updateEuro",
      "outputs": [],
      "stateMutability": "nonpayable",
      "type": "function"
    },
    {
      "inputs": [
        {
          "internalType": "contract IPool",
          "name": "_euroPool",
          "type": "address"
        }
      ],
      "name": "updateEuroPool",
      "outputs": [],
      "stateMutability": "nonpayable",
      "type": "function"
    },
    {
      "inputs": [
        {
          "internalType": "uint24",
          "name": "_usdcEuroPoolFee",
          "type": "uint24"
        }
      ],
      "name": "updateEuroUsdcPoolFee",
      "outputs": [],
      "stateMutability": "nonpayable",
      "type": "function"
    },
    {
      "inputs": [
        {
          "internalType": "contract IQuoterV2",
          "name": "_quoter",
          "type": "address"
        }
      ],
      "name": "updateQuoter",
      "outputs": [],
      "stateMutability": "nonpayable",
      "type": "function"
    },
    {
      "inputs": [
        {
          "internalType": "contract ISwapRouter",
          "name": "_swapRouter",
          "type": "address"
        }
      ],
      "name": "updateSwapRouter",
      "outputs": [],
      "stateMutability": "nonpayable",
      "type": "function"
    },
    {
      "inputs": [
        {
          "internalType": "contract IERC20",
          "name": "_usdc",
          "type": "address"
        }
      ],
      "name": "updateUSDC",
      "outputs": [],
      "stateMutability": "nonpayable",
      "type": "function"
    },
    {
      "inputs": [
        {
          "internalType": "contract IVenmoSendVerifier",
          "name": "_verifier",
          "type": "address"
        }
      ],
      "name": "updateVerifier",
      "outputs": [],
      "stateMutability": "nonpayable",
      "type": "function"
    },
    {
      "inputs": [],
      "name": "usdc",
      "outputs": [
        {
          "internalType": "contract IERC20",
          "name": "",
          "type": "address"
        }
      ],
      "stateMutability": "view",
      "type": "function"
    },
    {
      "inputs": [],
      "name": "usdcEuroPoolFee",
      "outputs": [
        {
          "internalType": "uint24",
          "name": "",
          "type": "uint24"
        }
      ],
      "stateMutability": "view",
      "type": "function"
    },
    {
      "inputs": [
        {
          "internalType": "uint256",
          "name": "",
          "type": "uint256"
        }
      ],
      "name": "venmoMailServerKeys",
      "outputs": [
        {
          "internalType": "uint256",
          "name": "",
          "type": "uint256"
        }
      ],
      "stateMutability": "view",
      "type": "function"
    },
    {
      "inputs": [],
      "name": "verifier",
      "outputs": [
        {
          "internalType": "contract IVenmoSendVerifier",
          "name": "",
          "type": "address"
        }
      ],
      "stateMutability": "view",
      "type": "function"
    }
  ],
  "bytecode": "0x6102a06040526e83a043f3f512cb0e9efb506011e35960809081526ec2e52cefcd800a155366e0207f256360a0526ef3576e6387ca2c770760edd72b0fae60c0526f019143a1fc85a71614784b98ff4b16c060e0526e7bbd0dfb9ef73cf08f4036e24a6b72610100526f0119d3bd704f04dc4f74482cdc239dc7610120526f01d083a581190a93434412d791fa7fd1610140526e64350c632569b077ed7b300d3a40516101605266a879c82b6c5e0a6101805260006101a08190526101c08190526101e081905261020081905261022081905261024081905261026081905261028052620000f2906009906011620001b7565b503480156200010057600080fd5b50604051620022393803806200223983398101604081905262000123916200021c565b600280546001600160a01b03199081166001600160a01b03998a161790915560038054821697891697909717909655600480548716958816959095179094556005805486169387169390931790925560078054600680548716938816939093179092559316919093161762ffffff60a01b1916600160a01b62ffffff909316929092029190911790556001600855620002e5565b8260118101928215620001f3579160200282015b82811115620001f357825182906001600160801b0316905591602001919060010190620001cb565b506200020192915062000205565b5090565b5b8082111562000201576000815560010162000206565b600080600080600080600060e0888a03121562000237578283fd5b87516200024481620002cc565b60208901519097506200025781620002cc565b60408901519096506200026a81620002cc565b60608901519095506200027d81620002cc565b60808901519094506200029081620002cc565b60a089015190935062ffffff81168114620002a9578283fd5b60c0890151909250620002bc81620002cc565b8091505092959891949750929550565b6001600160a01b0381168114620002e257600080fd5b50565b611f4480620002f56000396000f3fe608060405234801561001057600080fd5b50600436106101a95760003560e01c806397fc007c116100f9578063c370a14b11610097578063d09ef24111610071578063d09ef24114610375578063e416969e14610395578063e9ca28101461039d578063fb16a44e146103a5576101a9565b8063c370a14b14610352578063c5d1a7e91461035a578063c6bbd5a71461036d576101a9565b8063ac5d3723116100d3578063ac5d37231461030f578063b727bc4a14610322578063b98b677f14610337578063c31c9c071461034a576101a9565b806397fc007c146102c5578063a85c38ef146102d8578063ac0460a6146102fc576101a9565b80633e413bee116101665780635b5545e5116101405780635b5545e51461026a57806361d255c91461027d578063887012c114610290578063910c6855146102b2576101a9565b80633e413bee1461023a578063426172d61461024257806345d5378814610255576101a9565b806303b390a7146101ae578063069e64c4146101c35780630e540b3a146101ec5780631348eb5b146101ff57806315ddfa3e146102125780632b7ac3f314610225575b600080fd5b6101c16101bc366004611919565b6103b8565b005b6101d66101d136600461177e565b610432565b6040516101e39190611a9a565b60405180910390f35b6101c16101fa366004611971565b6105cd565b6101c161020d3660046117d8565b61072f565b6101c16102203660046117d8565b610751565b61022d610773565b6040516101e39190611aad565b61022d610782565b6101c16102503660046117d8565b610791565b61025d6107b3565b6040516101e39190611e47565b6101c1610278366004611865565b6107b9565b61025d61028b3660046118e9565b6108df565b6102a361029e3660046118e9565b6108f6565b6040516101e393929190611e50565b6101c16102c03660046117d8565b610a9b565b6101c16102d33660046117d8565b610abd565b6102eb6102e63660046118e9565b610adf565b6040516101e3959493929190611e79565b6101d661030a3660046118e9565b610ba1565b61025d61031d3660046117f4565b610c3b565b61032a610ce4565b6040516101e39190611e37565b6101c16103453660046117d8565b610cf6565b61022d610d18565b6101c1610d27565b6101c161036836600461182f565b610db4565b61022d610e81565b6103886103833660046118e9565b610e90565b6040516101e39190611d69565b61022d610fb2565b61022d610fc1565b6101c16103b33660046118c6565b610fd0565b60008281526020819052604090206003015460ff16156103f35760405162461bcd60e51b81526004016103ea90611c9e565b60405180910390fd5b6000828152600160209081526040909120825161041292840190611419565b50506000908152602081905260409020600301805460ff19166001179055565b604080516023808252606082810190935260009182916020820181803683370190505090506000805b60058161ffff16101561057e576000878261ffff166005811061047a57fe5b602002015160408051600780825261010082019092529192506000919081602001602082028036833701905050905060005b60078110156104e2578060080283901c8282815181106104c857fe5b60ff909216602092830291909101909101526001016104ac565b5060005b60078110156105735760008282815181106104fd57fe5b602002602001015160ff16905080600014610551578060f81b87878151811061052257fe5b60200101906001600160f81b031916908160001a905350600195860195881661054c576001880197505b610563565b60018089161415610563576001880197505b5060089290921c916001016104e6565b50505060010161045b565b5081600260ff8516146105a35760405162461bcd60e51b81526004016103ea90611c05565b858211156105c35760405162461bcd60e51b81526004016103ea90611b72565b9695505050505050565b6040805160c081018252600854808252602080830186815283850186815260006060808701829052608087018290528751908101885281815280850182905280880182905260a087015293845283835294909220835181559151600183015592518051929391926106449260028501920190611419565b50606082015160038083018054608086015166ffffffffffffff166101000267ffffffffffffff001994151560ff1990921691909117939093169290921790915560a0830151610699916004840191906114a5565b5050600480546040516323b872dd60e01b81526001600160a01b0390911692506323b872dd916106cf9133913091889101611a5d565b602060405180830381600087803b1580156106e957600080fd5b505af11580156106fd573d6000803e3d6000fd5b505050506040513d601f19601f8201168201806040525081019061072191906117b8565b505060088054600101905550565b600780546001600160a01b0319166001600160a01b0392909216919091179055565b600280546001600160a01b0319166001600160a01b0392909216919091179055565b6003546001600160a01b031681565b6004546001600160a01b031681565b600680546001600160a01b0319166001600160a01b0392909216919091179055565b60085481565b60006107c58484610ff4565b60008181526020818152604080832060038101805467ffffffffffffff0019166101004266ffffffffffffff811682029290921790925583519182018452600480546001600160a01b03908116845260075480821685890152600160a01b900462ffffff168487015233606085015260808401929092528787529486905260019092015460a082015260c0810185905260e08101859052600554925163414bf38960e01b81529596509491169163414bf3899161088491869101611d00565b602060405180830381600087803b15801561089e57600080fd5b505af11580156108b2573d6000803e3d6000fd5b505050506040513d601f19601f820116820180604052508101906108d69190611901565b50505050505050565b600981601181106108ef57600080fd5b0154905081565b6000606081805b838110156109cb5760008181526020819052604090206001015485116109c3576000818152602081815260409182902080546002918201805485516001821615610100026000190190911693909304601f8101859004850284018501909552848352909750909290918301828280156109b75780601f1061098c576101008083540402835291602001916109b7565b820191906000526020600020905b81548152906001019060200180831161099a57829003601f168201915b505050505092506109cb565b6001016108fd565b506040805160a081018252600480546001600160a01b0390811683526007548082166020850152838501899052600160a01b900462ffffff1660608401526000608084018190526006549451636352813560e11b81529394909391169163c6a5026a91610a3a91869101611def565b608060405180830381600087803b158015610a5457600080fd5b505af1158015610a68573d6000803e3d6000fd5b505050506040513d601f19601f82011682018060405250810190610a8c91906119ac565b50969895975090955050505050565b600480546001600160a01b0319166001600160a01b0392909216919091179055565b600380546001600160a01b0319166001600160a01b0392909216919091179055565b6000602081815291815260409081902080546001808301546002808501805487519481161561010002600019011691909104601f81018890048802840188019096528583529295909491929190830182828015610b7d5780601f10610b5257610100808354040283529160200191610b7d565b820191906000526020600020905b815481529060010190602001808311610b6057829003601f168201915b5050506003909301549192505060ff81169066ffffffffffffff6101009091041685565b60016020818152600092835260409283902080548451600294821615610100026000190190911693909304601f8101839004830284018301909452838352919290830182828015610c335780601f10610c0857610100808354040283529160200191610c33565b820191906000526020600020905b815481529060010190602001808311610c1657829003601f168201915b505050505081565b6000818180805b8351811015610cda576030848281518110610c5957fe5b016020015160f81c10801590610c8357506039848281518110610c7857fe5b016020015160f81c11155b15610cd2578291506030848281518110610c9957fe5b602001015160f81c60f81b60f81c0360ff1683600a0201925081831015610cd25760405162461bcd60e51b81526004016103ea90611cd5565b600101610c42565b5090949350505050565b600754600160a01b900462ffffff1681565b600580546001600160a01b0319166001600160a01b0392909216919091179055565b6005546001600160a01b031681565b60075460055460405163095ea7b360e01b81526001600160a01b039283169263095ea7b392610d5f9291169060001990600401611a81565b602060405180830381600087803b158015610d7957600080fd5b505af1158015610d8d573d6000803e3d6000fd5b505050506040513d601f19601f82011682018060405250810190610db191906117b8565b50565b6000610dc08383610ff4565b6000818152602081905260409081902060038101805467ffffffffffffff0019166101004266ffffffffffffff160217905560048054600190920154925163a9059cbb60e01b81529394506001600160a01b039091169263a9059cbb92610e2992339201611a81565b602060405180830381600087803b158015610e4357600080fd5b505af1158015610e57573d6000803e3d6000fd5b505050506040513d601f19601f82011682018060405250810190610e7b91906117b8565b50505050565b6006546001600160a01b031681565b610e986114d2565b60008281526020818152604091829020825160c08101845281548152600180830154828501526002808401805487519381161561010002600019011691909104601f81018690048602830186018752808352929593949386019391929091830182828015610f475780601f10610f1c57610100808354040283529160200191610f47565b820191906000526020600020905b815481529060010190602001808311610f2a57829003601f168201915b505050918352505060038281015460ff811615156020840152610100900466ffffffffffffff1660408084019190915280516060808201928390529093019291600485019182845b815481526020019060010190808311610f8f575050505050815250509050919050565b6002546001600160a01b031681565b6007546001600160a01b031681565b6007805462ffffff909216600160a01b0262ffffff60a01b19909216919091179055565b6000806000806000611006878761116d565b6000818152602081905260409020600301549397509195509350915060ff166110415760405162461bcd60e51b81526004016103ea90611af8565b600081815260208190526040902060030154610100900466ffffffffffffff161561107e5760405162461bcd60e51b81526004016103ea90611ac1565b600081815260208181526040918290206002908101805484516001821615610100026000190190911692909204601f8101849004840283018401909452838252879361111f938301828280156111155780601f106110ea57610100808354040283529160200191611115565b820191906000526020600020905b8154815290600101906020018083116110f857829003601f168201915b5050505050610c3b565b1461113c5760405162461bcd60e51b81526004016103ea90611b9d565b6000818152602081905260409020600101548310156105c35760405162461bcd60e51b81526004016103ea90611c51565b6000806060600061117c611518565b60005b60058110156111b2578681601f811061119457fe5b60200201518282600581106111a557fe5b602002015260010161117f565b5060006111c361031d83601e610432565b9050806127100294506111f7604051806040016040528060098152602001681554d1105b5bdd5b9d60ba1b81525086611346565b6111ff611518565b60005b6005811015611238578881600501601f811061121a57fe5b602002015182826005811061122b57fe5b6020020152600101611202565b5061124761031d82601e610432565b965061127d604051806040016040528060128152602001712932b1b2b4bb32b924b232b73a34b334b2b960711b81525088611346565b6101408801516101608901516101808a01516040516112a193929190602001611a47565b604051602081830303815290604052945060005b601181101561130657600981601181106112cb57fe5b01548982600d01601f81106112dc57fe5b6020020151146112fe5760405162461bcd60e51b81526004016103ea90611b49565b6001016112b5565b5087601e6020020151935061133a6040518060400160405280600781526020016613dc99195c925960ca1b81525085611346565b50505092959194509250565b6113f482826040516024018080602001838152602001828103825284818151815260200191508051906020019080838360005b83811015611391578181015183820152602001611379565b50505050905090810190601f1680156113be5780820380516001836020036101000a031916815260200191505b5060408051601f198184030181529190526020810180516001600160e01b0316632d839cb360e21b17905293506113f892505050565b5050565b60006a636f6e736f6c652e6c6f679050600080835160208501845afa505050565b828054600181600116156101000203166002900490600052602060002090601f01602090048101928261144f5760008555611495565b82601f1061146857805160ff1916838001178555611495565b82800160010185558215611495579182015b8281111561149557825182559160200191906001019061147a565b506114a1929150611536565b5090565b8260038101928215611495579160200282018281111561149557825182559160200191906001019061147a565b6040518060c00160405280600081526020016000815260200160608152602001600015158152602001600066ffffffffffffff16815260200161151361154b565b905290565b6040518060a001604052806005906020820280368337509192915050565b5b808211156114a15760008155600101611537565b60405180606001604052806003906020820280368337509192915050565b600061157c61157784611ede565b611eba565b905080826020868187028601111561159357600080fd5b60005b868110156115b257823584529281019291810191600101611596565b505050509392505050565b600067ffffffffffffffff8311156115d157fe5b6115e4601f8401601f1916602001611eba565b90508281528383830111156115f857600080fd5b828260208301376000602084830101529392505050565b600082601f83011261161f578081fd5b6040516040810181811067ffffffffffffffff8211171561163c57fe5b8060405250808385604086011115611652578384fd5b835b6002811015611673578135835260209283019290910190600101611654565b509195945050505050565b600082601f83011261168e578081fd5b61169a83601f84611569565b9392505050565b600082601f8301126116b1578081fd5b61169a838335602085016115bd565b600061010082840312156116d2578081fd5b604080516060810181811067ffffffffffffffff821117156116f057fe5b82529150816116ff858561160f565b815284605f85011261171057600080fd5b600261171e61157782611ede565b8084870160c088018981111561173357600080fd5b60005b8581101561175c576117488b8461160f565b855260209094019391870191600101611736565b5082602087015261176d8a8261160f565b878701525050505050505092915050565b60008060c08385031215611790578182fd5b83601f84011261179e578182fd5b6117aa84600585611569565b9460a0939093013593505050565b6000602082840312156117c9578081fd5b8151801515811461169a578182fd5b6000602082840312156117e9578081fd5b813561169a81611ef9565b600060208284031215611805578081fd5b813567ffffffffffffffff81111561181b578182fd5b611827848285016116a1565b949350505050565b6000806104e08385031215611842578182fd5b61184c84846116c0565b915061185c84610100850161167e565b90509250929050565b6000806000610500848603121561187a578081fd5b61188485856116c0565b925061189485610100860161167e565b91506104e084013567ffffffffffffffff8111156118b0578182fd5b6118bc868287016116a1565b9150509250925092565b6000602082840312156118d7578081fd5b813562ffffff8116811461169a578182fd5b6000602082840312156118fa578081fd5b5035919050565b600060208284031215611912578081fd5b5051919050565b6000806040838503121561192b578182fd5b82359150602083013567ffffffffffffffff811115611948578182fd5b8301601f81018513611958578182fd5b611967858235602084016115bd565b9150509250929050565b60008060408385031215611983578182fd5b82359150602083013567ffffffffffffffff8111156119a0578182fd5b611967858286016116a1565b600080600080608085870312156119c1578182fd5b8451935060208501516119d381611ef9565b604086015190935063ffffffff811681146119ec578283fd5b6060959095015193969295505050565b60008151808452815b81811015611a2157602081850181015186830182015201611a05565b81811115611a325782602083870101525b50601f01601f19169290920160200192915050565b9283526020830191909152604082015260600190565b6001600160a01b039384168152919092166020820152604081019190915260600190565b6001600160a01b03929092168252602082015260400190565b60006020825261169a60208301846119fc565b6001600160a01b0391909116815260200190565b6020808252601c908201527f4f72646572206d757374206e6f7420626520636f6d706c657465642e00000000604082015260600190565b60208082526031908201527f4f72646572206d75737420626520636c61696d6564206265666f72652069742060408201527031b0b71031329031b7b6b83632ba32b21760791b606082015260800190565b6020808252600f908201526e496e76616c6964206d6f64756c757360881b604082015260600190565b60208082526011908201527056656e6d6f20696420746f6f206c6f6e6760781b604082015260600190565b60208082526042908201527f52656365697665722061646472657373206d757374206d61746368207468652060408201527f6f6666636861696e207061796d656e7420726563656976657220616464726573606082015261399760f11b608082015260a00190565b6020808252602c908201527f496e76616c69642066696e616c207374617465206f66207061636b656420627960408201526b1d195cc81a5b88195b585a5b60a21b606082015260800190565b6020808252602d908201527f416d6f756e74206d7573742062652067726561746572207468616e207468652060408201526c37b93232b91030b6b7bab73a1760991b606082015260800190565b6020808252601f908201527f4f726465722068617320616c7265616479206265656e20636c61696d65642e00604082015260600190565b60208082526011908201527013dd995c999b1bddc819195d1958dd1959607a1b604082015260600190565b81516001600160a01b03908116825260208084015182169083015260408084015162ffffff16908301526060808401518216908301526080808401519083015260a0838101519083015260c0808401519083015260e09283015116918101919091526101000190565b6000602080835283518184015280840151604084015260408401516101006060850152611d9a6101208501826119fc565b905060608501511515608085015266ffffffffffffff60808601511660a085015260a085015160c08501845b6003811015611de357825182529184019190840190600101611dc6565b50919695505050505050565b81516001600160a01b0390811682526020808401518216908301526040808401519083015260608084015162ffffff1690830152608092830151169181019190915260a00190565b62ffffff91909116815260200190565b90815260200190565b600084825260606020830152611e6960608301856119fc565b9050826040830152949350505050565b600086825285602083015260a06040830152611e9860a08301866119fc565b93151560608301525066ffffffffffffff919091166080909101529392505050565b60405181810167ffffffffffffffff81118282101715611ed657fe5b604052919050565b600067ffffffffffffffff821115611ef257fe5b5060200290565b6001600160a01b0381168114610db157600080fdfea264697066735822122080a45af76f04d1f54210a8f6eaf3f5a86ea582985725a68cf85b7efb487bf96664736f6c63430007060033",
  "linkReferences": {},
  "deployedLinkReferences": {}
}