{
  "_format": "hh-sol-artifact-1",
  "contractName": "EUROPool",
  "sourceName": "contracts/EuroPool.sol",
  "abi": [
    {
      "inputs": [
        {
          "internalType": "contract IPool",
          "name": "_usdcPool",
          "type": "address"
        },
        {
          "internalType": "contract IVerifier",
          "name": "_verifier",
          "type": "address"
        },
        {
          "internalType": "contract IERC20",
          "name": "_ageuro",
          "type": "address"
        },
        {
          "internalType": "contract ISwapRouter",
          "name": "_swapRouter",
          "type": "address"
        },
        {
          "internalType": "contract IQuoterV2",
          "name": "_quoter",
          "type": "address"
        },
        {
          "internalType": "uint24",
          "name": "euroUsdcPoolFee",
          "type": "uint24"
        },
        {
          "internalType": "contract IERC20",
          "name": "_usdc",
          "type": "address"
        }
      ],
      "stateMutability": "nonpayable",
      "type": "constructor"
    },
    {
      "inputs": [],
      "name": "ageuro",
      "outputs": [
        {
          "internalType": "contract IERC20",
          "name": "",
          "type": "address"
        }
      ],
      "stateMutability": "view",
      "type": "function"
    },
    {
      "inputs": [],
      "name": "approveUsdcToUniswap",
      "outputs": [],
      "stateMutability": "nonpayable",
      "type": "function"
    },
    {
      "inputs": [
        {
          "internalType": "uint256",
          "name": "id",
          "type": "uint256"
        },
        {
          "internalType": "bytes32",
          "name": "emailHash",
          "type": "bytes32"
        }
      ],
      "name": "claimOrder",
      "outputs": [],
      "stateMutability": "nonpayable",
      "type": "function"
    },
    {
      "inputs": [
        {
          "internalType": "uint256",
          "name": "",
          "type": "uint256"
        }
      ],
      "name": "claimedOrders",
      "outputs": [
        {
          "internalType": "bytes32",
          "name": "",
          "type": "bytes32"
        }
      ],
      "stateMutability": "view",
      "type": "function"
    },
    {
      "inputs": [
        {
          "components": [
            {
              "internalType": "uint256[2]",
              "name": "a",
              "type": "uint256[2]"
            },
            {
              "internalType": "uint256[2][2]",
              "name": "b",
              "type": "uint256[2][2]"
            },
            {
              "internalType": "uint256[2]",
              "name": "c",
              "type": "uint256[2]"
            }
          ],
          "internalType": "struct IPool.Proof",
          "name": "proof",
          "type": "tuple"
        },
        {
          "internalType": "uint256[8]",
          "name": "inputs",
          "type": "uint256[8]"
        },
        {
          "internalType": "string",
          "name": "xBorderRecieverAddress",
          "type": "string"
        }
      ],
      "name": "completeOrder",
      "outputs": [],
      "stateMutability": "nonpayable",
      "type": "function"
    },
    {
      "inputs": [
        {
          "internalType": "uint256",
          "name": "amount",
          "type": "uint256"
        },
        {
          "internalType": "string",
          "name": "offChainPaymentAddress",
          "type": "string"
        }
      ],
      "name": "createOrder",
      "outputs": [],
      "stateMutability": "nonpayable",
      "type": "function"
    },
    {
      "inputs": [
        {
          "internalType": "uint256",
          "name": "id",
          "type": "uint256"
        }
      ],
      "name": "getOrder",
      "outputs": [
        {
          "components": [
            {
              "internalType": "uint256",
              "name": "id",
              "type": "uint256"
            },
            {
              "internalType": "uint256",
              "name": "amount",
              "type": "uint256"
            },
            {
              "internalType": "string",
              "name": "offChainPaymentAddress",
              "type": "string"
            },
            {
              "internalType": "bool",
              "name": "claimed",
              "type": "bool"
            },
            {
              "internalType": "uint56",
              "name": "completedAt",
              "type": "uint56"
            },
            {
              "internalType": "uint256[3]",
              "name": "takerEmailHash",
              "type": "uint256[3]"
            }
          ],
          "internalType": "struct IPool.Order",
          "name": "",
          "type": "tuple"
        }
      ],
      "stateMutability": "view",
      "type": "function"
    },
    {
      "inputs": [
        {
          "internalType": "uint256",
          "name": "euroAmount",
          "type": "uint256"
        }
      ],
      "name": "matchOrder",
      "outputs": [
        {
          "internalType": "uint256",
          "name": "orderId",
          "type": "uint256"
        },
        {
          "internalType": "string",
          "name": "offChainPaymentAddress",
          "type": "string"
        },
        {
          "internalType": "uint256",
          "name": "outputAmount",
          "type": "uint256"
        }
      ],
      "stateMutability": "nonpayable",
      "type": "function"
    },
    {
      "inputs": [],
      "name": "numOrders",
      "outputs": [
        {
          "internalType": "uint256",
          "name": "",
          "type": "uint256"
        }
      ],
      "stateMutability": "view",
      "type": "function"
    },
    {
      "inputs": [
        {
          "internalType": "uint256",
          "name": "",
          "type": "uint256"
        }
      ],
      "name": "orders",
      "outputs": [
        {
          "internalType": "uint256",
          "name": "id",
          "type": "uint256"
        },
        {
          "internalType": "uint256",
          "name": "amount",
          "type": "uint256"
        },
        {
          "internalType": "string",
          "name": "offChainPaymentAddress",
          "type": "string"
        },
        {
          "internalType": "bool",
          "name": "claimed",
          "type": "bool"
        },
        {
          "internalType": "uint56",
          "name": "completedAt",
          "type": "uint56"
        }
      ],
      "stateMutability": "view",
      "type": "function"
    },
    {
      "inputs": [],
      "name": "quoter",
      "outputs": [
        {
          "internalType": "contract IQuoterV2",
          "name": "",
          "type": "address"
        }
      ],
      "stateMutability": "view",
      "type": "function"
    },
    {
      "inputs": [
        {
          "internalType": "uint256",
          "name": "",
          "type": "uint256"
        }
      ],
      "name": "revolutServerKeys",
      "outputs": [
        {
          "internalType": "uint256",
          "name": "",
          "type": "uint256"
        }
      ],
      "stateMutability": "view",
      "type": "function"
    },
    {
      "inputs": [],
      "name": "swapRouter",
      "outputs": [
        {
          "internalType": "contract ISwapRouter",
          "name": "",
          "type": "address"
        }
      ],
      "stateMutability": "view",
      "type": "function"
    },
    {
      "inputs": [
        {
          "internalType": "contract IERC20",
          "name": "_ageuro",
          "type": "address"
        }
      ],
      "name": "updateEuro",
      "outputs": [],
      "stateMutability": "nonpayable",
      "type": "function"
    },
    {
      "inputs": [
        {
          "internalType": "uint24",
          "name": "_usdcEuroPoolFee",
          "type": "uint24"
        }
      ],
      "name": "updateEuroUsdcPoolFee",
      "outputs": [],
      "stateMutability": "nonpayable",
      "type": "function"
    },
    {
      "inputs": [
        {
          "internalType": "contract IQuoterV2",
          "name": "_quoter",
          "type": "address"
        }
      ],
      "name": "updateQuoter",
      "outputs": [],
      "stateMutability": "nonpayable",
      "type": "function"
    },
    {
      "inputs": [
        {
          "internalType": "contract ISwapRouter",
          "name": "_swapRouter",
          "type": "address"
        }
      ],
      "name": "updateSwapRouter",
      "outputs": [],
      "stateMutability": "nonpayable",
      "type": "function"
    },
    {
      "inputs": [
        {
          "internalType": "contract IERC20",
          "name": "_usdc",
          "type": "address"
        }
      ],
      "name": "updateUSDC",
      "outputs": [],
      "stateMutability": "nonpayable",
      "type": "function"
    },
    {
      "inputs": [
        {
          "internalType": "contract IPool",
          "name": "_usdcPool",
          "type": "address"
        }
      ],
      "name": "updateUsdcPool",
      "outputs": [],
      "stateMutability": "nonpayable",
      "type": "function"
    },
    {
      "inputs": [
        {
          "internalType": "contract IVerifier",
          "name": "_verifier",
          "type": "address"
        }
      ],
      "name": "updateVerifier",
      "outputs": [],
      "stateMutability": "nonpayable",
      "type": "function"
    },
    {
      "inputs": [],
      "name": "usdc",
      "outputs": [
        {
          "internalType": "contract IERC20",
          "name": "",
          "type": "address"
        }
      ],
      "stateMutability": "view",
      "type": "function"
    },
    {
      "inputs": [],
      "name": "usdcEuroPoolFee",
      "outputs": [
        {
          "internalType": "uint24",
          "name": "",
          "type": "uint24"
        }
      ],
      "stateMutability": "view",
      "type": "function"
    },
    {
      "inputs": [],
      "name": "usdcPool",
      "outputs": [
        {
          "internalType": "contract IPool",
          "name": "",
          "type": "address"
        }
      ],
      "stateMutability": "view",
      "type": "function"
    },
    {
      "inputs": [],
      "name": "verifier",
      "outputs": [
        {
          "internalType": "contract IVerifier",
          "name": "",
          "type": "address"
        }
      ],
      "stateMutability": "view",
      "type": "function"
    }
  ],
  "bytecode": "0x6102806040526f01058481b16c0c6bc68b612881d6910960809081526f017fd23efa54659bcfc805b3d06649d660a0526f0100aa2baa3c1b6ef87468ec5bc14f7360c0526f01c43bddf64aeafd7faffc39c2911ba560e0526f016ad3c248dd353b192e38cccf34a01f610100526f01d80b82a4f6cead025d04200087be3f610120526f01b87939bd34a27fa069022ecf22cd31610140526f01d73d3916dbbf584bc426b675efa1f46101605266ac4c64b591c8216101805260006101a08190526101c08190526101e081905261020081905261022081905261024081905261026052620000f1906009906010620001b7565b50348015620000ff57600080fd5b50604051620019363803806200193683398101604081905262000122916200021c565b600280546001600160a01b03199081166001600160a01b03998a16179091556003805482169789169790971790965560048054871695881695909517909455600580548616938716939093179092556006805485169186169190911790556007805462ffffff60a01b1916600160a01b62ffffff909316929092029190911790921692169190911790556001600855620002e5565b8260118101928215620001f3579160200282015b82811115620001f357825182906001600160801b0316905591602001919060010190620001cb565b506200020192915062000205565b5090565b5b8082111562000201576000815560010162000206565b600080600080600080600060e0888a03121562000237578283fd5b87516200024481620002cc565b60208901519097506200025781620002cc565b60408901519096506200026a81620002cc565b60608901519095506200027d81620002cc565b60808901519094506200029081620002cc565b60a089015190935062ffffff81168114620002a9578283fd5b60c0890151909250620002bc81620002cc565b8091505092959891949750929550565b6001600160a01b0381168114620002e257600080fd5b50565b61164180620002f56000396000f3fe608060405234801561001057600080fd5b50600436106101585760003560e01c8063910c6855116100c3578063c31c9c071161007c578063c31c9c07146102ce578063c6bbd5a7146102d6578063d09ef241146102de578063e49bd61e146102fe578063fa79ad9714610306578063fb16a44e1461030e57610158565b8063910c68551461024957806397fc007c1461025c578063a85c38ef1461026f578063ac0460a614610293578063b727bc4a146102a6578063b98b677f146102bb57610158565b80633e413bee116101155780633e413bee146101de578063426172d6146101e657806345d53788146101f95780634b7484a61461020157806380be1cf814610214578063887012c11461022757610158565b80630e540b3a1461015d5780631348eb5b146101725780631ad414f91461018557806323a993ad1461018d5780632b7ac3f3146101a0578063340d86b7146101be575b600080fd5b61017061016b366004611113565b610321565b005b610170610180366004610f77565b610483565b6101706104a5565b61017061019b366004610f77565b610532565b6101a8610554565b6040516101b591906112e6565b60405180910390f35b6101d16101cc3660046110c2565b610563565b6040516101b591906112dd565b6101a861057a565b6101706101f4366004610f77565b610589565b6101d16105ab565b61017061020f366004610f93565b6105b1565b6101706102223660046110f2565b610815565b61023a6102353660046110c2565b610871565b6040516101b59392919061154d565b610170610257366004610f77565b610a16565b61017061026a366004610f77565b610a38565b61028261027d3660046110c2565b610a5a565b6040516101b5959493929190611576565b6101d16102a13660046110c2565b610b1c565b6102ae610b2e565b6040516101b5919061153d565b6101706102c9366004610f77565b610b40565b6101a8610b62565b6101a8610b71565b6102f16102ec3660046110c2565b610b80565b6040516101b5919061146f565b6101a8610ca2565b6101a8610cb1565b61017061031c36600461109f565b610cc0565b6040805160c081018252600854808252602080830186815283850186815260006060808701829052608087018290528751908101885281815280850182905280880182905260a087015293845283835294909220835181559151600183015592518051929391926103989260028501920190610ce4565b50606082015160038083018054608086015166ffffffffffffff166101000267ffffffffffffff001994151560ff1990921691909117939093169290921790915560a08301516103ed91600484019190610d70565b5050600480546040516323b872dd60e01b81526001600160a01b0390911692506323b872dd91610423913391309188910161121c565b602060405180830381600087803b15801561043d57600080fd5b505af1158015610451573d6000803e3d6000fd5b505050506040513d601f19601f820116820180604052508101906104759190610f50565b505060088054600101905550565b600480546001600160a01b0319166001600160a01b0392909216919091179055565b60075460055460405163095ea7b360e01b81526001600160a01b039283169263095ea7b3926104dd9291169060001990600401611240565b602060405180830381600087803b1580156104f757600080fd5b505af115801561050b573d6000803e3d6000fd5b505050506040513d601f19601f8201168201806040525081019061052f9190610f50565b50565b600280546001600160a01b0319166001600160a01b0392909216919091179055565b6003546001600160a01b031681565b6009816011811061057357600080fd5b0154905081565b6007546001600160a01b031681565b600680546001600160a01b0319166001600160a01b0392909216919091179055565b60085481565b8151604080516060808201835260208087015183528387015181840152818701518385015260808701518451928301855260a0880151835260c08801518383015260e0880151838601526000868152918290529390206003015491929160ff166106365760405162461bcd60e51b815260040161062d90611331565b60405180910390fd5b600084815260208190526040902060030154610100900466ffffffffffffff16156106735760405162461bcd60e51b815260040161062d906112fa565b600354875160208901516040808b0151905163eb610a8560e01b81526001600160a01b039094169363eb610a85936106b393909290918c90600401611259565b60206040518083038186803b1580156106cb57600080fd5b505afa1580156106df573d6000803e3d6000fd5b505050506040513d601f19601f820116820180604052508101906107039190610f50565b506000848152602081905260409020600101548210156107355760405162461bcd60e51b815260040161062d90611382565b6040805161010081018252600480546001600160a01b0390811683526007548082166020850152600160a01b900462ffffff168385015233606084015242608084015260a08301869052600060c0840181905260e08401819052600554945163414bf38960e01b81529394909391169163414bf389916107b791869101611406565b602060405180830381600087803b1580156107d157600080fd5b505af11580156107e5573d6000803e3d6000fd5b505050506040513d601f19601f8201168201806040525081019061080991906110da565b50505050505050505050565b60008281526020819052604090206003015460ff16156108475760405162461bcd60e51b815260040161062d906113cf565b6000918252600160208181526040808520939093558390529120600301805460ff19169091179055565b6000606081805b8381101561094657600081815260208190526040902060010154851161093e576000818152602081815260409182902080546002918201805485516001821615610100026000190190911693909304601f8101859004850284018501909552848352909750909290918301828280156109325780601f1061090757610100808354040283529160200191610932565b820191906000526020600020905b81548152906001019060200180831161091557829003601f168201915b50505050509250610946565b600101610878565b506040805160a081018252600480546001600160a01b0390811683526007548082166020850152838501899052600160a01b900462ffffff1660608401526000608084018190526006549451636352813560e11b81529394909391169163c6a5026a916109b5918691016114f5565b608060405180830381600087803b1580156109cf57600080fd5b505af11580156109e3573d6000803e3d6000fd5b505050506040513d601f19601f82011682018060405250810190610a079190611158565b50969895975090955050505050565b600780546001600160a01b0319166001600160a01b0392909216919091179055565b600380546001600160a01b0319166001600160a01b0392909216919091179055565b6000602081815291815260409081902080546001808301546002808501805487519481161561010002600019011691909104601f81018890048802840188019096528583529295909491929190830182828015610af85780601f10610acd57610100808354040283529160200191610af8565b820191906000526020600020905b815481529060010190602001808311610adb57829003601f168201915b5050506003909301549192505060ff81169066ffffffffffffff6101009091041685565b60016020526000908152604090205481565b600754600160a01b900462ffffff1681565b600580546001600160a01b0319166001600160a01b0392909216919091179055565b6005546001600160a01b031681565b6006546001600160a01b031681565b610b88610d9d565b60008281526020818152604091829020825160c08101845281548152600180830154828501526002808401805487519381161561010002600019011691909104601f81018690048602830186018752808352929593949386019391929091830182828015610c375780601f10610c0c57610100808354040283529160200191610c37565b820191906000526020600020905b815481529060010190602001808311610c1a57829003601f168201915b505050918352505060038281015460ff811615156020840152610100900466ffffffffffffff1660408084019190915280516060808201928390529093019291600485019182845b815481526020019060010190808311610c7f575050505050815250509050919050565b6002546001600160a01b031681565b6004546001600160a01b031681565b6007805462ffffff909216600160a01b0262ffffff60a01b19909216919091179055565b828054600181600116156101000203166002900490600052602060002090601f016020900481019282610d1a5760008555610d60565b82601f10610d3357805160ff1916838001178555610d60565b82800160010185558215610d60579182015b82811115610d60578251825591602001919060010190610d45565b50610d6c929150610de3565b5090565b8260038101928215610d605791602002820182811115610d60578251825591602001919060010190610d45565b6040518060c00160405280600081526020016000815260200160608152602001600015158152602001600066ffffffffffffff168152602001610dde610df8565b905290565b5b80821115610d6c5760008155600101610de4565b60405180606001604052806003906020820280368337509192915050565b600082601f830112610e26578081fd5b6040516040810181811067ffffffffffffffff82111715610e4357fe5b8060405250808385604086011115610e59578384fd5b835b6002811015610e7a578135835260209283019290910190600101610e5b565b509195945050505050565b600082601f830112610e95578081fd5b60405161010080820182811067ffffffffffffffff82111715610eb457fe5b6040528184828101871015610ec7578485fd5b8492505b6008831015610e7a57803582526001929092019160209182019101610ecb565b600082601f830112610efb578081fd5b813567ffffffffffffffff811115610f0f57fe5b610f22601f8201601f19166020016115b7565b818152846020838601011115610f36578283fd5b816020850160208301379081016020019190915292915050565b600060208284031215610f61578081fd5b81518015158114610f70578182fd5b9392505050565b600060208284031215610f88578081fd5b8135610f70816115f6565b6000806000838503610220811215610fa9578283fd5b61010080821215610fb8578384fd5b6040915081516060810167ffffffffffffffff8282108183111715610fd957fe5b818552610fe68a8a610e16565b835289605f8a0112610ff6578687fd5b6002915061100b611006836115db565b6115b7565b80868b0160c08c018d81111561101f578a8bfd5b8a5b86811015611047576110338f84610e16565b855260209094019391890191600101611021565b508260208801526110588e82610e16565b898801525050505082975061106f8a858b01610e85565b9650610200890135945080851115611085578586fd5b5050505061109586828701610eeb565b9150509250925092565b6000602082840312156110b0578081fd5b813562ffffff81168114610f70578182fd5b6000602082840312156110d3578081fd5b5035919050565b6000602082840312156110eb578081fd5b5051919050565b60008060408385031215611104578182fd5b50508035926020909101359150565b60008060408385031215611125578182fd5b82359150602083013567ffffffffffffffff811115611142578182fd5b61114e85828601610eeb565b9150509250929050565b6000806000806080858703121561116d578182fd5b84519350602085015161117f816115f6565b604086015190935063ffffffff81168114611198578283fd5b6060959095015193969295505050565b8060005b60028110156111cb5781518452602093840193909101906001016111ac565b50505050565b60008151808452815b818110156111f6576020818501810151868301820152016111da565b818111156112075782602083870101525b50601f01601f19169290920160200192915050565b6001600160a01b039384168152919092166020820152604081019190915260600190565b6001600160a01b03929092168252602082015260400190565b610200810161126882876111a8565b60408083018660005b6002811015611298576112858383516111a8565b9183019160209190910190600101611271565b505050506112a960c08301856111a8565b61010082018360005b60088110156112d15781518352602092830192909101906001016112b2565b50505095945050505050565b90815260200190565b6001600160a01b0391909116815260200190565b6020808252601c908201527f4f72646572206d757374206e6f7420626520636f6d706c657465642e00000000604082015260600190565b60208082526031908201527f4f72646572206d75737420626520636c61696d6564206265666f72652069742060408201527031b0b71031329031b7b6b83632ba32b21760791b606082015260800190565b6020808252602d908201527f416d6f756e74206d7573742062652067726561746572207468616e207468652060408201526c37b93232b91030b6b7bab73a1760991b606082015260800190565b6020808252601f908201527f4f726465722068617320616c7265616479206265656e20636c61696d65642e00604082015260600190565b81516001600160a01b03908116825260208084015182169083015260408084015162ffffff16908301526060808401518216908301526080808401519083015260a0838101519083015260c0808401519083015260e09283015116918101919091526101000190565b60006020808352835181840152808401516040840152604084015161010060608501526114a06101208501826111d1565b905060608501511515608085015266ffffffffffffff60808601511660a085015260a085015160c08501845b60038110156114e9578251825291840191908401906001016114cc565b50919695505050505050565b81516001600160a01b0390811682526020808401518216908301526040808401519083015260608084015162ffffff1690830152608092830151169181019190915260a00190565b62ffffff91909116815260200190565b60008482526060602083015261156660608301856111d1565b9050826040830152949350505050565b600086825285602083015260a0604083015261159560a08301866111d1565b93151560608301525066ffffffffffffff919091166080909101529392505050565b60405181810167ffffffffffffffff811182821017156115d357fe5b604052919050565b600067ffffffffffffffff8211156115ef57fe5b5060200290565b6001600160a01b038116811461052f57600080fdfea2646970667358221220ebf17486390b04ed2f9cf7c78bba75f534430aa0d3597191f5a53a412092a7a664736f6c63430007060033",
  "linkReferences": {},
  "deployedLinkReferences": {}
}