{
  "_format": "hh-sol-artifact-1",
  "contractName": "EUROPool",
  "sourceName": "contracts/EuroPool.sol",
  "abi": [
    {
      "inputs": [
        {
          "internalType": "contract IPool",
          "name": "_usdcPool",
          "type": "address"
        },
        {
          "internalType": "contract IRevolutSendVerifier",
          "name": "_verifier",
          "type": "address"
        },
        {
          "internalType": "contract IERC20",
          "name": "_ageuro",
          "type": "address"
        },
        {
          "internalType": "contract ISwapRouter",
          "name": "_swapRouter",
          "type": "address"
        },
        {
          "internalType": "contract IQuoterV2",
          "name": "_quoter",
          "type": "address"
        },
        {
          "internalType": "uint24",
          "name": "euroUsdcPoolFee",
          "type": "uint24"
        },
        {
          "internalType": "contract IERC20",
          "name": "_usdc",
          "type": "address"
        }
      ],
      "stateMutability": "nonpayable",
      "type": "constructor"
    },
    {
      "inputs": [],
      "name": "ageuro",
      "outputs": [
        {
          "internalType": "contract IERC20",
          "name": "",
          "type": "address"
        }
      ],
      "stateMutability": "view",
      "type": "function"
    },
    {
      "inputs": [],
      "name": "approveUsdcToUniswap",
      "outputs": [],
      "stateMutability": "nonpayable",
      "type": "function"
    },
    {
      "inputs": [
        {
          "internalType": "uint256",
          "name": "id",
          "type": "uint256"
        },
        {
          "internalType": "bytes32",
          "name": "emailHash",
          "type": "bytes32"
        }
      ],
      "name": "claimOrder",
      "outputs": [],
      "stateMutability": "nonpayable",
      "type": "function"
    },
    {
      "inputs": [
        {
          "internalType": "uint256",
          "name": "",
          "type": "uint256"
        }
      ],
      "name": "claimedOrders",
      "outputs": [
        {
          "internalType": "bytes32",
          "name": "",
          "type": "bytes32"
        }
      ],
      "stateMutability": "view",
      "type": "function"
    },
    {
      "inputs": [
        {
          "components": [
            {
              "internalType": "uint256[2]",
              "name": "a",
              "type": "uint256[2]"
            },
            {
              "internalType": "uint256[2][2]",
              "name": "b",
              "type": "uint256[2][2]"
            },
            {
              "internalType": "uint256[2]",
              "name": "c",
              "type": "uint256[2]"
            }
          ],
          "internalType": "struct IPool.Proof",
          "name": "proof",
          "type": "tuple"
        },
        {
          "internalType": "uint256[31]",
          "name": "inputs",
          "type": "uint256[31]"
        },
        {
          "internalType": "string",
          "name": "xBorderRecieverAddress",
          "type": "string"
        }
      ],
      "name": "completeOrder",
      "outputs": [],
      "stateMutability": "nonpayable",
      "type": "function"
    },
    {
      "inputs": [
        {
          "internalType": "uint256[5]",
          "name": "packedBytes",
          "type": "uint256[5]"
        },
        {
          "internalType": "uint256",
          "name": "maxBytes",
          "type": "uint256"
        }
      ],
      "name": "convertPackedBytesToBytes",
      "outputs": [
        {
          "internalType": "string",
          "name": "extractedString",
          "type": "string"
        }
      ],
      "stateMutability": "pure",
      "type": "function"
    },
    {
      "inputs": [
        {
          "internalType": "uint256",
          "name": "amount",
          "type": "uint256"
        },
        {
          "internalType": "string",
          "name": "offChainPaymentAddress",
          "type": "string"
        }
      ],
      "name": "createOrder",
      "outputs": [],
      "stateMutability": "nonpayable",
      "type": "function"
    },
    {
      "inputs": [
        {
          "internalType": "uint256",
          "name": "id",
          "type": "uint256"
        }
      ],
      "name": "getOrder",
      "outputs": [
        {
          "components": [
            {
              "internalType": "uint256",
              "name": "id",
              "type": "uint256"
            },
            {
              "internalType": "uint256",
              "name": "amount",
              "type": "uint256"
            },
            {
              "internalType": "string",
              "name": "offChainPaymentAddress",
              "type": "string"
            },
            {
              "internalType": "bool",
              "name": "claimed",
              "type": "bool"
            },
            {
              "internalType": "uint56",
              "name": "completedAt",
              "type": "uint56"
            },
            {
              "internalType": "uint256[3]",
              "name": "takerEmailHash",
              "type": "uint256[3]"
            }
          ],
          "internalType": "struct IPool.Order",
          "name": "",
          "type": "tuple"
        }
      ],
      "stateMutability": "view",
      "type": "function"
    },
    {
      "inputs": [
        {
          "internalType": "uint256",
          "name": "euroAmount",
          "type": "uint256"
        }
      ],
      "name": "matchOrder",
      "outputs": [
        {
          "internalType": "uint256",
          "name": "orderId",
          "type": "uint256"
        },
        {
          "internalType": "string",
          "name": "offChainPaymentAddress",
          "type": "string"
        },
        {
          "internalType": "uint256",
          "name": "outputAmount",
          "type": "uint256"
        }
      ],
      "stateMutability": "nonpayable",
      "type": "function"
    },
    {
      "inputs": [],
      "name": "numOrders",
      "outputs": [
        {
          "internalType": "uint256",
          "name": "",
          "type": "uint256"
        }
      ],
      "stateMutability": "view",
      "type": "function"
    },
    {
      "inputs": [
        {
          "internalType": "uint256",
          "name": "",
          "type": "uint256"
        }
      ],
      "name": "orders",
      "outputs": [
        {
          "internalType": "uint256",
          "name": "id",
          "type": "uint256"
        },
        {
          "internalType": "uint256",
          "name": "amount",
          "type": "uint256"
        },
        {
          "internalType": "string",
          "name": "offChainPaymentAddress",
          "type": "string"
        },
        {
          "internalType": "bool",
          "name": "claimed",
          "type": "bool"
        },
        {
          "internalType": "uint56",
          "name": "completedAt",
          "type": "uint56"
        }
      ],
      "stateMutability": "view",
      "type": "function"
    },
    {
      "inputs": [],
      "name": "quoter",
      "outputs": [
        {
          "internalType": "contract IQuoterV2",
          "name": "",
          "type": "address"
        }
      ],
      "stateMutability": "view",
      "type": "function"
    },
    {
      "inputs": [
        {
          "internalType": "uint256",
          "name": "",
          "type": "uint256"
        }
      ],
      "name": "revolutServerKeys",
      "outputs": [
        {
          "internalType": "uint256",
          "name": "",
          "type": "uint256"
        }
      ],
      "stateMutability": "view",
      "type": "function"
    },
    {
      "inputs": [
        {
          "internalType": "string",
          "name": "s",
          "type": "string"
        }
      ],
      "name": "stringToUint256",
      "outputs": [
        {
          "internalType": "uint256",
          "name": "",
          "type": "uint256"
        }
      ],
      "stateMutability": "pure",
      "type": "function"
    },
    {
      "inputs": [],
      "name": "swapRouter",
      "outputs": [
        {
          "internalType": "contract ISwapRouter",
          "name": "",
          "type": "address"
        }
      ],
      "stateMutability": "view",
      "type": "function"
    },
    {
      "inputs": [
        {
          "internalType": "contract IERC20",
          "name": "_ageuro",
          "type": "address"
        }
      ],
      "name": "updateEuro",
      "outputs": [],
      "stateMutability": "nonpayable",
      "type": "function"
    },
    {
      "inputs": [
        {
          "internalType": "uint24",
          "name": "_usdcEuroPoolFee",
          "type": "uint24"
        }
      ],
      "name": "updateEuroUsdcPoolFee",
      "outputs": [],
      "stateMutability": "nonpayable",
      "type": "function"
    },
    {
      "inputs": [
        {
          "internalType": "contract IQuoterV2",
          "name": "_quoter",
          "type": "address"
        }
      ],
      "name": "updateQuoter",
      "outputs": [],
      "stateMutability": "nonpayable",
      "type": "function"
    },
    {
      "inputs": [
        {
          "internalType": "contract ISwapRouter",
          "name": "_swapRouter",
          "type": "address"
        }
      ],
      "name": "updateSwapRouter",
      "outputs": [],
      "stateMutability": "nonpayable",
      "type": "function"
    },
    {
      "inputs": [
        {
          "internalType": "contract IERC20",
          "name": "_usdc",
          "type": "address"
        }
      ],
      "name": "updateUSDC",
      "outputs": [],
      "stateMutability": "nonpayable",
      "type": "function"
    },
    {
      "inputs": [
        {
          "internalType": "contract IPool",
          "name": "_usdcPool",
          "type": "address"
        }
      ],
      "name": "updateUsdcPool",
      "outputs": [],
      "stateMutability": "nonpayable",
      "type": "function"
    },
    {
      "inputs": [
        {
          "internalType": "contract IRevolutSendVerifier",
          "name": "_verifier",
          "type": "address"
        }
      ],
      "name": "updateVerifier",
      "outputs": [],
      "stateMutability": "nonpayable",
      "type": "function"
    },
    {
      "inputs": [],
      "name": "usdc",
      "outputs": [
        {
          "internalType": "contract IERC20",
          "name": "",
          "type": "address"
        }
      ],
      "stateMutability": "view",
      "type": "function"
    },
    {
      "inputs": [],
      "name": "usdcEuroPoolFee",
      "outputs": [
        {
          "internalType": "uint24",
          "name": "",
          "type": "uint24"
        }
      ],
      "stateMutability": "view",
      "type": "function"
    },
    {
      "inputs": [],
      "name": "usdcPool",
      "outputs": [
        {
          "internalType": "contract IPool",
          "name": "",
          "type": "address"
        }
      ],
      "stateMutability": "view",
      "type": "function"
    },
    {
      "inputs": [],
      "name": "verifier",
      "outputs": [
        {
          "internalType": "contract IRevolutSendVerifier",
          "name": "",
          "type": "address"
        }
      ],
      "stateMutability": "view",
      "type": "function"
    }
  ],
  "bytecode": "0x6102806040526f01058481b16c0c6bc68b612881d6910960809081526f017fd23efa54659bcfc805b3d06649d660a0526f0100aa2baa3c1b6ef87468ec5bc14f7360c0526f01c43bddf64aeafd7faffc39c2911ba560e0526f016ad3c248dd353b192e38cccf34a01f610100526f01d80b82a4f6cead025d04200087be3f610120526f01b87939bd34a27fa069022ecf22cd31610140526f01d73d3916dbbf584bc426b675efa1f46101605266ac4c64b591c8216101805260006101a08190526101c08190526101e081905261020081905261022081905261024081905261026052620000f1906009906010620001b7565b50348015620000ff57600080fd5b50604051620020303803806200203083398101604081905262000122916200021c565b600280546001600160a01b03199081166001600160a01b03998a16179091556003805482169789169790971790965560048054871695881695909517909455600580548616938716939093179092556006805485169186169190911790556007805462ffffff60a01b1916600160a01b62ffffff909316929092029190911790921692169190911790556001600855620002e5565b8260118101928215620001f3579160200282015b82811115620001f357825182906001600160801b0316905591602001919060010190620001cb565b506200020192915062000205565b5090565b5b8082111562000201576000815560010162000206565b600080600080600080600060e0888a03121562000237578283fd5b87516200024481620002cc565b60208901519097506200025781620002cc565b60408901519096506200026a81620002cc565b60608901519095506200027d81620002cc565b60808901519094506200029081620002cc565b60a089015190935062ffffff81168114620002a9578283fd5b60c0890151909250620002bc81620002cc565b8091505092959891949750929550565b6001600160a01b0381168114620002e257600080fd5b50565b611d3b80620002f56000396000f3fe608060405234801561001057600080fd5b506004361061018e5760003560e01c8063910c6855116100de578063b98b677f11610097578063d09ef24111610071578063d09ef24114610347578063e49bd61e14610367578063fa79ad971461036f578063fb16a44e146103775761018e565b8063b98b677f14610324578063c31c9c0714610337578063c6bbd5a71461033f5761018e565b8063910c68551461029f57806397fc007c146102b2578063a85c38ef146102c5578063ac0460a6146102e9578063ac5d3723146102fc578063b727bc4a1461030f5761018e565b80632b7ac3f31161014b578063426172d611610125578063426172d61461024f57806345d537881461026257806380be1cf81461026a578063887012c11461027d5761018e565b80632b7ac3f314610212578063340d86b7146102275780633e413bee146102475761018e565b8063069e64c4146101935780630e540b3a146101bc5780631348eb5b146101d15780631ad414f9146101e457806323a993ad146101ec57806329a6682f146101ff575b600080fd5b6101a66101a136600461145e565b61038a565b6040516101b39190611887565b60405180910390f35b6101cf6101ca36600461168a565b61052e565b005b6101cf6101df3660046114b8565b610690565b6101cf6106b2565b6101cf6101fa3660046114b8565b61073f565b6101cf61020d36600461150f565b610761565b61021a6109ee565b6040516101b39190611873565b61023a610235366004611639565b6109fd565b6040516101b3919061186a565b61021a610a14565b6101cf61025d3660046114b8565b610a23565b61023a610a45565b6101cf610278366004611669565b610a4b565b61029061028b366004611639565b610aa7565b6040516101b393929190611c47565b6101cf6102ad3660046114b8565b610c4c565b6101cf6102c03660046114b8565b610c6e565b6102d86102d3366004611639565b610c90565b6040516101b3959493929190611c70565b61023a6102f7366004611639565b610d52565b61023a61030a3660046114d4565b610d64565b610317610e0d565b6040516101b39190611c37565b6101cf6103323660046114b8565b610e1f565b61021a610e41565b61021a610e50565b61035a610355366004611639565b610e5f565b6040516101b39190611b69565b61021a610f81565b61021a610f90565b6101cf610385366004611616565b610f9f565b604080516023808252606082810190935260009182916020820181803683370190505090506000805b60058161ffff1610156104d6576000878261ffff16600581106103d257fe5b602002015160408051600780825261010082019092529192506000919081602001602082028036833701905050905060005b600781101561043a578060080283901c82828151811061042057fe5b60ff90921660209283029190910190910152600101610404565b5060005b60078110156104cb57600082828151811061045557fe5b602002602001015160ff169050806000146104a9578060f81b87878151811061047a57fe5b60200101906001600160f81b031916908160001a90535060019586019588166104a4576001880197505b6104bb565b600180891614156104bb576001880197505b5060089290921c9160010161043e565b5050506001016103b3565b5081600260ff8516146105045760405162461bcd60e51b81526004016104fb906119de565b60405180910390fd5b858211156105245760405162461bcd60e51b81526004016104fb9061194b565b9695505050505050565b6040805160c081018252600854808252602080830186815283850186815260006060808701829052608087018290528751908101885281815280850182905280880182905260a087015293845283835294909220835181559151600183015592518051929391926105a592600285019201906111c3565b50606082015160038083018054608086015166ffffffffffffff166101000267ffffffffffffff001994151560ff1990921691909117939093169290921790915560a08301516105fa9160048401919061124f565b5050600480546040516323b872dd60e01b81526001600160a01b0390911692506323b872dd9161063091339130918891016117a9565b602060405180830381600087803b15801561064a57600080fd5b505af115801561065e573d6000803e3d6000fd5b505050506040513d601f19601f820116820180604052508101906106829190611498565b505060088054600101905550565b600480546001600160a01b0319166001600160a01b0392909216919091179055565b60075460055460405163095ea7b360e01b81526001600160a01b039283169263095ea7b3926106ea92911690600019906004016117cd565b602060405180830381600087803b15801561070457600080fd5b505af1158015610718573d6000803e3d6000fd5b505050506040513d601f19601f8201168201806040525081019061073c9190611498565b50565b600280546001600160a01b0319166001600160a01b0392909216919091179055565b6000806000806107718787610fc3565b6000818152602081905260409020600301549397509195509350915060ff166107ac5760405162461bcd60e51b81526004016104fb906118d1565b600081815260208190526040902060030154610100900466ffffffffffffff16156107e95760405162461bcd60e51b81526004016104fb9061189a565b600081815260208181526040918290206002908101805484516001821615610100026000190190911692909204601f8101849004840283018401909452838252879361088a938301828280156108805780601f1061085557610100808354040283529160200191610880565b820191906000526020600020905b81548152906001019060200180831161086357829003601f168201915b5050505050610d64565b146108a75760405162461bcd60e51b81526004016104fb90611976565b6000818152602081905260409020600101548310156108d85760405162461bcd60e51b81526004016104fb90611a2a565b600081815260208181526040808320600301805467ffffffffffffff0019166101004266ffffffffffffff811682029290921790925582519182018352600480546001600160a01b03908116845260075480821696850196909652600160a01b90950462ffffff1683850152336060840152608083019190915260a0820188905260c0820185905260e08201859052600554925163414bf38960e01b8152919493929092169163414bf3899161099091869101611b00565b602060405180830381600087803b1580156109aa57600080fd5b505af11580156109be573d6000803e3d6000fd5b505050506040513d601f19601f820116820180604052508101906109e29190611651565b50505050505050505050565b6003546001600160a01b031681565b60098160118110610a0d57600080fd5b0154905081565b6007546001600160a01b031681565b600680546001600160a01b0319166001600160a01b0392909216919091179055565b60085481565b60008281526020819052604090206003015460ff1615610a7d5760405162461bcd60e51b81526004016104fb90611a77565b6000918252600160208181526040808520939093558390529120600301805460ff19169091179055565b6000606081805b83811015610b7c576000818152602081905260409020600101548511610b74576000818152602081815260409182902080546002918201805485516001821615610100026000190190911693909304601f810185900485028401850190955284835290975090929091830182828015610b685780601f10610b3d57610100808354040283529160200191610b68565b820191906000526020600020905b815481529060010190602001808311610b4b57829003601f168201915b50505050509250610b7c565b600101610aae565b506040805160a081018252600480546001600160a01b0390811683526007548082166020850152838501899052600160a01b900462ffffff1660608401526000608084018190526006549451636352813560e11b81529394909391169163c6a5026a91610beb91869101611bef565b608060405180830381600087803b158015610c0557600080fd5b505af1158015610c19573d6000803e3d6000fd5b505050506040513d601f19601f82011682018060405250810190610c3d91906116cf565b50969895975090955050505050565b600780546001600160a01b0319166001600160a01b0392909216919091179055565b600380546001600160a01b0319166001600160a01b0392909216919091179055565b6000602081815291815260409081902080546001808301546002808501805487519481161561010002600019011691909104601f81018890048802840188019096528583529295909491929190830182828015610d2e5780601f10610d0357610100808354040283529160200191610d2e565b820191906000526020600020905b815481529060010190602001808311610d1157829003601f168201915b5050506003909301549192505060ff81169066ffffffffffffff6101009091041685565b60016020526000908152604090205481565b6000818180805b8351811015610e03576030848281518110610d8257fe5b016020015160f81c10801590610dac57506039848281518110610da157fe5b016020015160f81c11155b15610dfb578291506030848281518110610dc257fe5b602001015160f81c60f81b60f81c0360ff1683600a0201925081831015610dfb5760405162461bcd60e51b81526004016104fb90611aae565b600101610d6b565b5090949350505050565b600754600160a01b900462ffffff1681565b600580546001600160a01b0319166001600160a01b0392909216919091179055565b6005546001600160a01b031681565b6006546001600160a01b031681565b610e6761127c565b60008281526020818152604091829020825160c08101845281548152600180830154828501526002808401805487519381161561010002600019011691909104601f81018690048602830186018752808352929593949386019391929091830182828015610f165780601f10610eeb57610100808354040283529160200191610f16565b820191906000526020600020905b815481529060010190602001808311610ef957829003601f168201915b505050918352505060038281015460ff811615156020840152610100900466ffffffffffffff1660408084019190915280516060808201928390529093019291600485019182845b815481526020019060010190808311610f5e575050505050815250509050919050565b6002546001600160a01b031681565b6004546001600160a01b031681565b6007805462ffffff909216600160a01b0262ffffff60a01b19909216919091179055565b60035482516020840151604080860151905163167b759760e11b8152600094859460609486946001600160a01b0390931693632cf6eb2e9361100b9392918b906004016117e6565b60206040518083038186803b15801561102357600080fd5b505afa158015611037573d6000803e3d6000fd5b505050506040513d601f19601f8201168201806040525081019061105b9190611498565b6110775760405162461bcd60e51b81526004016104fb90611ad9565b61107f6112c2565b60005b60058110156110b5578681601f811061109757fe5b60200201518282600581106110a857fe5b6020020152600101611082565b5060006110c661030a83601e61038a565b905080670de0b6b3a76400000294506110dd6112c2565b60005b6005811015611116578881600501601f81106110f857fe5b602002015182826005811061110957fe5b60200201526001016110e0565b5061112561030a82601e61038a565b6101408901516101608a01516101808b0151604051939a5061114993602001611793565b604051602081830303815290604052945060005b60118110156111ae576009816011811061117357fe5b01548982600d01601f811061118457fe5b6020020151146111a65760405162461bcd60e51b81526004016104fb90611922565b60010161115d565b5050506103c090950151939692955090935050565b828054600181600116156101000203166002900490600052602060002090601f0160209004810192826111f9576000855561123f565b82601f1061121257805160ff191683800117855561123f565b8280016001018555821561123f579182015b8281111561123f578251825591602001919060010190611224565b5061124b9291506112e0565b5090565b826003810192821561123f579160200282018281111561123f578251825591602001919060010190611224565b6040518060c00160405280600081526020016000815260200160608152602001600015158152602001600066ffffffffffffff1681526020016112bd6112f5565b905290565b6040518060a001604052806005906020820280368337509192915050565b5b8082111561124b57600081556001016112e1565b60405180606001604052806003906020820280368337509192915050565b600061132661132184611cd5565b611cb1565b905080826020868187028601111561133d57600080fd5b60005b8681101561135c57823584529281019291810191600101611340565b505050509392505050565b600082601f830112611377578081fd5b6040516040810181811067ffffffffffffffff8211171561139457fe5b80604052508083856040860111156113aa578384fd5b835b60028110156113cb5781358352602092830192909101906001016113ac565b509195945050505050565b600082601f8301126113e6578081fd5b6113f283601f84611313565b9392505050565b600082601f830112611409578081fd5b813567ffffffffffffffff81111561141d57fe5b611430601f8201601f1916602001611cb1565b818152846020838601011115611444578283fd5b816020850160208301379081016020019190915292915050565b60008060c08385031215611470578182fd5b83601f84011261147e578182fd5b61148a84600585611313565b9460a0939093013593505050565b6000602082840312156114a9578081fd5b815180151581146113f2578182fd5b6000602082840312156114c9578081fd5b81356113f281611cf0565b6000602082840312156114e5578081fd5b813567ffffffffffffffff8111156114fb578182fd5b611507848285016113f9565b949350505050565b6000806000838503610500811215611525578182fd5b61010080821215611534578283fd5b6040915081516060810167ffffffffffffffff828210818311171561155557fe5b8185526115628a8a611367565b835289605f8a0112611572578586fd5b6002915061158261132183611cd5565b80868b0160c08c018d81111561159657898afd5b895b868110156115be576115aa8f84611367565b855260209094019391890191600101611598565b508260208801526115cf8e82611367565b89880152505050508297506115e68a858b016113d6565b96506104e08901359450808511156115fc578586fd5b5050505061160c868287016113f9565b9150509250925092565b600060208284031215611627578081fd5b813562ffffff811681146113f2578182fd5b60006020828403121561164a578081fd5b5035919050565b600060208284031215611662578081fd5b5051919050565b6000806040838503121561167b578182fd5b50508035926020909101359150565b6000806040838503121561169c578182fd5b82359150602083013567ffffffffffffffff8111156116b9578182fd5b6116c5858286016113f9565b9150509250929050565b600080600080608085870312156116e4578182fd5b8451935060208501516116f681611cf0565b604086015190935063ffffffff8116811461170f578283fd5b6060959095015193969295505050565b8060005b6002811015611742578151845260209384019390910190600101611723565b50505050565b60008151808452815b8181101561176d57602081850181015186830182015201611751565b8181111561177e5782602083870101525b50601f01601f19169290920160200192915050565b9283526020830191909152604082015260600190565b6001600160a01b039384168152919092166020820152604081019190915260600190565b6001600160a01b03929092168252602082015260400190565b6104e081016117f5828761171f565b60408083018660005b60028110156118255761181283835161171f565b91830191602091909101906001016117fe565b5050505061183660c083018561171f565b61010082018360005b601f81101561185e57815183526020928301929091019060010161183f565b50505095945050505050565b90815260200190565b6001600160a01b0391909116815260200190565b6000602082526113f26020830184611748565b6020808252601c908201527f4f72646572206d757374206e6f7420626520636f6d706c657465642e00000000604082015260600190565b60208082526031908201527f4f72646572206d75737420626520636c61696d6564206265666f72652069742060408201527031b0b71031329031b7b6b83632ba32b21760791b606082015260800190565b6020808252600f908201526e496e76616c6964206d6f64756c757360881b604082015260600190565b60208082526011908201527056656e6d6f20696420746f6f206c6f6e6760781b604082015260600190565b60208082526042908201527f52656365697665722061646472657373206d757374206d61746368207468652060408201527f6f6666636861696e207061796d656e7420726563656976657220616464726573606082015261399760f11b608082015260a00190565b6020808252602c908201527f496e76616c69642066696e616c207374617465206f66207061636b656420627960408201526b1d195cc81a5b88195b585a5b60a21b606082015260800190565b6020808252602d908201527f416d6f756e74206d7573742062652067726561746572207468616e207468652060408201526c37b93232b91030b6b7bab73a1760991b606082015260800190565b6020808252601f908201527f4f726465722068617320616c7265616479206265656e20636c61696d65642e00604082015260600190565b60208082526011908201527013dd995c999b1bddc819195d1958dd1959607a1b604082015260600190565b6020808252600d908201526c24b73b30b634b210383937b7b360991b604082015260600190565b81516001600160a01b03908116825260208084015182169083015260408084015162ffffff16908301526060808401518216908301526080808401519083015260a0838101519083015260c0808401519083015260e09283015116918101919091526101000190565b6000602080835283518184015280840151604084015260408401516101006060850152611b9a610120850182611748565b905060608501511515608085015266ffffffffffffff60808601511660a085015260a085015160c08501845b6003811015611be357825182529184019190840190600101611bc6565b50919695505050505050565b81516001600160a01b0390811682526020808401518216908301526040808401519083015260608084015162ffffff1690830152608092830151169181019190915260a00190565b62ffffff91909116815260200190565b600084825260606020830152611c606060830185611748565b9050826040830152949350505050565b600086825285602083015260a06040830152611c8f60a0830186611748565b93151560608301525066ffffffffffffff919091166080909101529392505050565b60405181810167ffffffffffffffff81118282101715611ccd57fe5b604052919050565b600067ffffffffffffffff821115611ce957fe5b5060200290565b6001600160a01b038116811461073c57600080fdfea26469706673582212205a562d23a0f5fa0e6e303929bdf577aff6415277f7270c8049576bae2fa9ca5264736f6c63430007060033",
  "linkReferences": {},
  "deployedLinkReferences": {}
}