{
  "_format": "hh-sol-artifact-1",
  "contractName": "USDCPool",
  "sourceName": "contracts/USDCPool.sol",
  "abi": [
    {
      "inputs": [
        {
          "internalType": "contract IPool",
          "name": "_euroPool",
          "type": "address"
        },
        {
          "internalType": "contract IVenmoSendVerifier",
          "name": "_verifier",
          "type": "address"
        },
        {
          "internalType": "contract IERC20",
          "name": "_usdc",
          "type": "address"
        },
        {
          "internalType": "contract ISwapRouter",
          "name": "_swapRouter",
          "type": "address"
        },
        {
          "internalType": "contract IQuoterV2",
          "name": "_quoter",
          "type": "address"
        },
        {
          "internalType": "uint24",
          "name": "euroUsdcPoolFee",
          "type": "uint24"
        },
        {
          "internalType": "contract IERC20",
          "name": "_euro",
          "type": "address"
        }
      ],
      "stateMutability": "nonpayable",
      "type": "constructor"
    },
    {
      "inputs": [],
      "name": "approveEuroToUniswap",
      "outputs": [],
      "stateMutability": "nonpayable",
      "type": "function"
    },
    {
      "inputs": [
        {
          "internalType": "uint256",
          "name": "id",
          "type": "uint256"
        },
        {
          "internalType": "bytes32",
          "name": "emailHash",
          "type": "bytes32"
        }
      ],
      "name": "claimOrder",
      "outputs": [],
      "stateMutability": "nonpayable",
      "type": "function"
    },
    {
      "inputs": [
        {
          "internalType": "uint256",
          "name": "",
          "type": "uint256"
        }
      ],
      "name": "claimedOrders",
      "outputs": [
        {
          "internalType": "bytes32",
          "name": "",
          "type": "bytes32"
        }
      ],
      "stateMutability": "view",
      "type": "function"
    },
    {
      "inputs": [
        {
          "components": [
            {
              "internalType": "uint256[2]",
              "name": "a",
              "type": "uint256[2]"
            },
            {
              "internalType": "uint256[2][2]",
              "name": "b",
              "type": "uint256[2][2]"
            },
            {
              "internalType": "uint256[2]",
              "name": "c",
              "type": "uint256[2]"
            }
          ],
          "internalType": "struct IPool.Proof",
          "name": "proof",
          "type": "tuple"
        },
        {
          "internalType": "uint256[31]",
          "name": "inputs",
          "type": "uint256[31]"
        },
        {
          "internalType": "string",
          "name": "xBorderRecieverAddress",
          "type": "string"
        }
      ],
      "name": "completeOrder",
      "outputs": [],
      "stateMutability": "nonpayable",
      "type": "function"
    },
    {
      "inputs": [
        {
          "internalType": "uint256[5]",
          "name": "packedBytes",
          "type": "uint256[5]"
        },
        {
          "internalType": "uint256",
          "name": "maxBytes",
          "type": "uint256"
        }
      ],
      "name": "convertPackedBytesToBytes",
      "outputs": [
        {
          "internalType": "string",
          "name": "extractedString",
          "type": "string"
        }
      ],
      "stateMutability": "pure",
      "type": "function"
    },
    {
      "inputs": [
        {
          "internalType": "uint256",
          "name": "amount",
          "type": "uint256"
        },
        {
          "internalType": "string",
          "name": "offChainPaymentAddress",
          "type": "string"
        }
      ],
      "name": "createOrder",
      "outputs": [],
      "stateMutability": "nonpayable",
      "type": "function"
    },
    {
      "inputs": [],
      "name": "euro",
      "outputs": [
        {
          "internalType": "contract IERC20",
          "name": "",
          "type": "address"
        }
      ],
      "stateMutability": "view",
      "type": "function"
    },
    {
      "inputs": [],
      "name": "euroPool",
      "outputs": [
        {
          "internalType": "contract IPool",
          "name": "",
          "type": "address"
        }
      ],
      "stateMutability": "view",
      "type": "function"
    },
    {
      "inputs": [
        {
          "internalType": "uint256",
          "name": "id",
          "type": "uint256"
        }
      ],
      "name": "getOrder",
      "outputs": [
        {
          "components": [
            {
              "internalType": "uint256",
              "name": "id",
              "type": "uint256"
            },
            {
              "internalType": "uint256",
              "name": "amount",
              "type": "uint256"
            },
            {
              "internalType": "string",
              "name": "offChainPaymentAddress",
              "type": "string"
            },
            {
              "internalType": "bool",
              "name": "claimed",
              "type": "bool"
            },
            {
              "internalType": "uint56",
              "name": "completedAt",
              "type": "uint56"
            },
            {
              "internalType": "uint256[3]",
              "name": "takerEmailHash",
              "type": "uint256[3]"
            }
          ],
          "internalType": "struct IPool.Order",
          "name": "",
          "type": "tuple"
        }
      ],
      "stateMutability": "view",
      "type": "function"
    },
    {
      "inputs": [
        {
          "internalType": "uint256",
          "name": "usdcAmount",
          "type": "uint256"
        }
      ],
      "name": "matchOrder",
      "outputs": [
        {
          "internalType": "uint256",
          "name": "orderId",
          "type": "uint256"
        },
        {
          "internalType": "string",
          "name": "offChainPaymentAddress",
          "type": "string"
        },
        {
          "internalType": "uint256",
          "name": "outputAmount",
          "type": "uint256"
        }
      ],
      "stateMutability": "nonpayable",
      "type": "function"
    },
    {
      "inputs": [],
      "name": "numOrders",
      "outputs": [
        {
          "internalType": "uint256",
          "name": "",
          "type": "uint256"
        }
      ],
      "stateMutability": "view",
      "type": "function"
    },
    {
      "inputs": [
        {
          "internalType": "uint256",
          "name": "",
          "type": "uint256"
        }
      ],
      "name": "orders",
      "outputs": [
        {
          "internalType": "uint256",
          "name": "id",
          "type": "uint256"
        },
        {
          "internalType": "uint256",
          "name": "amount",
          "type": "uint256"
        },
        {
          "internalType": "string",
          "name": "offChainPaymentAddress",
          "type": "string"
        },
        {
          "internalType": "bool",
          "name": "claimed",
          "type": "bool"
        },
        {
          "internalType": "uint56",
          "name": "completedAt",
          "type": "uint56"
        }
      ],
      "stateMutability": "view",
      "type": "function"
    },
    {
      "inputs": [],
      "name": "quoter",
      "outputs": [
        {
          "internalType": "contract IQuoterV2",
          "name": "",
          "type": "address"
        }
      ],
      "stateMutability": "view",
      "type": "function"
    },
    {
      "inputs": [
        {
          "internalType": "string",
          "name": "s",
          "type": "string"
        }
      ],
      "name": "stringToUint256",
      "outputs": [
        {
          "internalType": "uint256",
          "name": "",
          "type": "uint256"
        }
      ],
      "stateMutability": "pure",
      "type": "function"
    },
    {
      "inputs": [],
      "name": "swapRouter",
      "outputs": [
        {
          "internalType": "contract ISwapRouter",
          "name": "",
          "type": "address"
        }
      ],
      "stateMutability": "view",
      "type": "function"
    },
    {
      "inputs": [
        {
          "internalType": "contract IERC20",
          "name": "_euro",
          "type": "address"
        }
      ],
      "name": "updateEuro",
      "outputs": [],
      "stateMutability": "nonpayable",
      "type": "function"
    },
    {
      "inputs": [
        {
          "internalType": "contract IPool",
          "name": "_euroPool",
          "type": "address"
        }
      ],
      "name": "updateEuroPool",
      "outputs": [],
      "stateMutability": "nonpayable",
      "type": "function"
    },
    {
      "inputs": [
        {
          "internalType": "uint24",
          "name": "_usdcEuroPoolFee",
          "type": "uint24"
        }
      ],
      "name": "updateEuroUsdcPoolFee",
      "outputs": [],
      "stateMutability": "nonpayable",
      "type": "function"
    },
    {
      "inputs": [
        {
          "internalType": "contract IQuoterV2",
          "name": "_quoter",
          "type": "address"
        }
      ],
      "name": "updateQuoter",
      "outputs": [],
      "stateMutability": "nonpayable",
      "type": "function"
    },
    {
      "inputs": [
        {
          "internalType": "contract ISwapRouter",
          "name": "_swapRouter",
          "type": "address"
        }
      ],
      "name": "updateSwapRouter",
      "outputs": [],
      "stateMutability": "nonpayable",
      "type": "function"
    },
    {
      "inputs": [
        {
          "internalType": "contract IERC20",
          "name": "_usdc",
          "type": "address"
        }
      ],
      "name": "updateUSDC",
      "outputs": [],
      "stateMutability": "nonpayable",
      "type": "function"
    },
    {
      "inputs": [
        {
          "internalType": "contract IVenmoSendVerifier",
          "name": "_verifier",
          "type": "address"
        }
      ],
      "name": "updateVerifier",
      "outputs": [],
      "stateMutability": "nonpayable",
      "type": "function"
    },
    {
      "inputs": [],
      "name": "usdc",
      "outputs": [
        {
          "internalType": "contract IERC20",
          "name": "",
          "type": "address"
        }
      ],
      "stateMutability": "view",
      "type": "function"
    },
    {
      "inputs": [],
      "name": "usdcEuroPoolFee",
      "outputs": [
        {
          "internalType": "uint24",
          "name": "",
          "type": "uint24"
        }
      ],
      "stateMutability": "view",
      "type": "function"
    },
    {
      "inputs": [
        {
          "internalType": "uint256",
          "name": "",
          "type": "uint256"
        }
      ],
      "name": "venmoMailServerKeys",
      "outputs": [
        {
          "internalType": "uint256",
          "name": "",
          "type": "uint256"
        }
      ],
      "stateMutability": "view",
      "type": "function"
    },
    {
      "inputs": [],
      "name": "verifier",
      "outputs": [
        {
          "internalType": "contract IVenmoSendVerifier",
          "name": "",
          "type": "address"
        }
      ],
      "stateMutability": "view",
      "type": "function"
    }
  ],
  "bytecode": "0x6102a06040526e83a043f3f512cb0e9efb506011e35960809081526ec2e52cefcd800a155366e0207f256360a0526ef3576e6387ca2c770760edd72b0fae60c0526f019143a1fc85a71614784b98ff4b16c060e0526e7bbd0dfb9ef73cf08f4036e24a6b72610100526f0119d3bd704f04dc4f74482cdc239dc7610120526f01d083a581190a93434412d791fa7fd1610140526e64350c632569b077ed7b300d3a40516101605266a879c82b6c5e0a6101805260006101a08190526101c08190526101e081905261020081905261022081905261024081905261026081905261028052620000f2906009906011620001b7565b503480156200010057600080fd5b50604051620020bb380380620020bb83398101604081905262000123916200021c565b600280546001600160a01b03199081166001600160a01b03998a161790915560038054821697891697909717909655600480548716958816959095179094556005805486169387169390931790925560078054600680548716938816939093179092559316919093161762ffffff60a01b1916600160a01b62ffffff909316929092029190911790556001600855620002e5565b8260118101928215620001f3579160200282015b82811115620001f357825182906001600160801b0316905591602001919060010190620001cb565b506200020192915062000205565b5090565b5b8082111562000201576000815560010162000206565b600080600080600080600060e0888a03121562000237578283fd5b87516200024481620002cc565b60208901519097506200025781620002cc565b60408901519096506200026a81620002cc565b60608901519095506200027d81620002cc565b60808901519094506200029081620002cc565b60a089015190935062ffffff81168114620002a9578283fd5b60c0890151909250620002bc81620002cc565b8091505092959891949750929550565b6001600160a01b0381168114620002e257600080fd5b50565b611dc680620002f56000396000f3fe608060405234801561001057600080fd5b506004361061018e5760003560e01c806397fc007c116100de578063c31c9c0711610097578063d09ef24111610071578063d09ef24114610347578063e416969e14610367578063e9ca28101461036f578063fb16a44e146103775761018e565b8063c31c9c071461032f578063c370a14b14610337578063c6bbd5a71461033f5761018e565b806397fc007c146102aa578063a85c38ef146102bd578063ac0460a6146102e1578063ac5d3723146102f4578063b727bc4a14610307578063b98b677f1461031c5761018e565b80633e413bee1161014b57806361d255c91161012557806361d255c91461024f57806380be1cf814610262578063887012c114610275578063910c6855146102975761018e565b80633e413bee1461021f578063426172d61461022757806345d537881461023a5761018e565b8063069e64c4146101935780630e540b3a146101bc5780631348eb5b146101d157806315ddfa3e146101e457806329a6682f146101f75780632b7ac3f31461020a575b600080fd5b6101a66101a13660046114e9565b61038a565b6040516101b39190611912565b60405180910390f35b6101cf6101ca366004611715565b61052e565b005b6101cf6101df366004611543565b610690565b6101cf6101f2366004611543565b6106b2565b6101cf61020536600461159a565b6106d4565b6102126109f2565b6040516101b391906118fe565b610212610a01565b6101cf610235366004611543565b610a10565b610242610a32565b6040516101b391906118f5565b61024261025d3660046116c4565b610a38565b6101cf6102703660046116f4565b610a4f565b6102886102833660046116c4565b610aab565b6040516101b393929190611cd2565b6101cf6102a5366004611543565b610c50565b6101cf6102b8366004611543565b610c72565b6102d06102cb3660046116c4565b610c94565b6040516101b3959493929190611cfb565b6102426102ef3660046116c4565b610d56565b61024261030236600461155f565b610d68565b61030f610e11565b6040516101b39190611cc2565b6101cf61032a366004611543565b610e23565b610212610e45565b6101cf610e54565b610212610ee1565b61035a6103553660046116c4565b610ef0565b6040516101b39190611bf4565b610212611012565b610212611021565b6101cf6103853660046116a1565b611030565b604080516023808252606082810190935260009182916020820181803683370190505090506000805b60058161ffff1610156104d6576000878261ffff16600581106103d257fe5b602002015160408051600780825261010082019092529192506000919081602001602082028036833701905050905060005b600781101561043a578060080283901c82828151811061042057fe5b60ff90921660209283029190910190910152600101610404565b5060005b60078110156104cb57600082828151811061045557fe5b602002602001015160ff169050806000146104a9578060f81b87878151811061047a57fe5b60200101906001600160f81b031916908160001a90535060019586019588166104a4576001880197505b6104bb565b600180891614156104bb576001880197505b5060089290921c9160010161043e565b5050506001016103b3565b5081600260ff8516146105045760405162461bcd60e51b81526004016104fb90611a69565b60405180910390fd5b858211156105245760405162461bcd60e51b81526004016104fb906119d6565b9695505050505050565b6040805160c081018252600854808252602080830186815283850186815260006060808701829052608087018290528751908101885281815280850182905280880182905260a087015293845283835294909220835181559151600183015592518051929391926105a5926002850192019061124e565b50606082015160038083018054608086015166ffffffffffffff166101000267ffffffffffffff001994151560ff1990921691909117939093169290921790915560a08301516105fa916004840191906112da565b5050600480546040516323b872dd60e01b81526001600160a01b0390911692506323b872dd916106309133913091889101611834565b602060405180830381600087803b15801561064a57600080fd5b505af115801561065e573d6000803e3d6000fd5b505050506040513d601f19601f820116820180604052508101906106829190611523565b505060088054600101905550565b600780546001600160a01b0319166001600160a01b0392909216919091179055565b600280546001600160a01b0319166001600160a01b0392909216919091179055565b6000806000806106e48787611054565b6000818152602081905260409020600301549397509195509350915060ff1661071f5760405162461bcd60e51b81526004016104fb9061195c565b600081815260208190526040902060030154610100900466ffffffffffffff161561075c5760405162461bcd60e51b81526004016104fb90611925565b600354875160208901516040808b0151905163167b759760e11b81526001600160a01b0390941693632cf6eb2e9361079c93909290918c90600401611871565b60206040518083038186803b1580156107b457600080fd5b505afa1580156107c8573d6000803e3d6000fd5b505050506040513d601f19601f820116820180604052508101906107ec9190611523565b50600081815260208181526040918290206002908101805484516001821615610100026000190190911692909204601f8101849004840283018401909452838252879361088e938301828280156108845780601f1061085957610100808354040283529160200191610884565b820191906000526020600020905b81548152906001019060200180831161086757829003601f168201915b5050505050610d68565b146108ab5760405162461bcd60e51b81526004016104fb90611a01565b6000818152602081905260409020600101548310156108dc5760405162461bcd60e51b81526004016104fb90611ab5565b600081815260208181526040808320600301805467ffffffffffffff0019166101004266ffffffffffffff811682029290921790925582519182018352600480546001600160a01b03908116845260075480821696850196909652600160a01b90950462ffffff1683850152336060840152608083019190915260a0820188905260c0820185905260e08201859052600554925163414bf38960e01b8152919493929092169163414bf3899161099491869101611b8b565b602060405180830381600087803b1580156109ae57600080fd5b505af11580156109c2573d6000803e3d6000fd5b505050506040513d601f19601f820116820180604052508101906109e691906116dc565b50505050505050505050565b6003546001600160a01b031681565b6004546001600160a01b031681565b600680546001600160a01b0319166001600160a01b0392909216919091179055565b60085481565b60098160118110610a4857600080fd5b0154905081565b60008281526020819052604090206003015460ff1615610a815760405162461bcd60e51b81526004016104fb90611b02565b6000918252600160208181526040808520939093558390529120600301805460ff19169091179055565b6000606081805b83811015610b80576000818152602081905260409020600101548511610b78576000818152602081815260409182902080546002918201805485516001821615610100026000190190911693909304601f810185900485028401850190955284835290975090929091830182828015610b6c5780601f10610b4157610100808354040283529160200191610b6c565b820191906000526020600020905b815481529060010190602001808311610b4f57829003601f168201915b50505050509250610b80565b600101610ab2565b506040805160a081018252600480546001600160a01b0390811683526007548082166020850152838501899052600160a01b900462ffffff1660608401526000608084018190526006549451636352813560e11b81529394909391169163c6a5026a91610bef91869101611c7a565b608060405180830381600087803b158015610c0957600080fd5b505af1158015610c1d573d6000803e3d6000fd5b505050506040513d601f19601f82011682018060405250810190610c41919061175a565b50969895975090955050505050565b600480546001600160a01b0319166001600160a01b0392909216919091179055565b600380546001600160a01b0319166001600160a01b0392909216919091179055565b6000602081815291815260409081902080546001808301546002808501805487519481161561010002600019011691909104601f81018890048802840188019096528583529295909491929190830182828015610d325780601f10610d0757610100808354040283529160200191610d32565b820191906000526020600020905b815481529060010190602001808311610d1557829003601f168201915b5050506003909301549192505060ff81169066ffffffffffffff6101009091041685565b60016020526000908152604090205481565b6000818180805b8351811015610e07576030848281518110610d8657fe5b016020015160f81c10801590610db057506039848281518110610da557fe5b016020015160f81c11155b15610dff578291506030848281518110610dc657fe5b602001015160f81c60f81b60f81c0360ff1683600a0201925081831015610dff5760405162461bcd60e51b81526004016104fb90611b39565b600101610d6f565b5090949350505050565b600754600160a01b900462ffffff1681565b600580546001600160a01b0319166001600160a01b0392909216919091179055565b6005546001600160a01b031681565b60075460055460405163095ea7b360e01b81526001600160a01b039283169263095ea7b392610e8c9291169060001990600401611858565b602060405180830381600087803b158015610ea657600080fd5b505af1158015610eba573d6000803e3d6000fd5b505050506040513d601f19601f82011682018060405250810190610ede9190611523565b50565b6006546001600160a01b031681565b610ef8611307565b60008281526020818152604091829020825160c08101845281548152600180830154828501526002808401805487519381161561010002600019011691909104601f81018690048602830186018752808352929593949386019391929091830182828015610fa75780601f10610f7c57610100808354040283529160200191610fa7565b820191906000526020600020905b815481529060010190602001808311610f8a57829003601f168201915b505050918352505060038281015460ff811615156020840152610100900466ffffffffffffff1660408084019190915280516060808201928390529093019291600485019182845b815481526020019060010190808311610fef575050505050815250509050919050565b6002546001600160a01b031681565b6007546001600160a01b031681565b6007805462ffffff909216600160a01b0262ffffff60a01b19909216919091179055565b60035482516020840151604080860151905163167b759760e11b8152600094859460609486946001600160a01b0390931693632cf6eb2e9361109c9392918b90600401611871565b60206040518083038186803b1580156110b457600080fd5b505afa1580156110c8573d6000803e3d6000fd5b505050506040513d601f19601f820116820180604052508101906110ec9190611523565b6111085760405162461bcd60e51b81526004016104fb90611b64565b61111061134d565b60005b6005811015611146578681601f811061112857fe5b602002015182826005811061113957fe5b6020020152600101611113565b50600061115761030283601e61038a565b90508061271002945061116861134d565b60005b60058110156111a1578881600501601f811061118357fe5b602002015182826005811061119457fe5b602002015260010161116b565b506111b061030282601e61038a565b6101408901516101608a01516101808b0151604051939a506111d49360200161181e565b604051602081830303815290604052945060005b601181101561123957600981601181106111fe57fe5b01548982600d01601f811061120f57fe5b6020020151146112315760405162461bcd60e51b81526004016104fb906119ad565b6001016111e8565b5050506103c090950151939692955090935050565b828054600181600116156101000203166002900490600052602060002090601f01602090048101928261128457600085556112ca565b82601f1061129d57805160ff19168380011785556112ca565b828001600101855582156112ca579182015b828111156112ca5782518255916020019190600101906112af565b506112d692915061136b565b5090565b82600381019282156112ca57916020028201828111156112ca5782518255916020019190600101906112af565b6040518060c00160405280600081526020016000815260200160608152602001600015158152602001600066ffffffffffffff168152602001611348611380565b905290565b6040518060a001604052806005906020820280368337509192915050565b5b808211156112d6576000815560010161136c565b60405180606001604052806003906020820280368337509192915050565b60006113b16113ac84611d60565b611d3c565b90508082602086818702860111156113c857600080fd5b60005b868110156113e7578235845292810192918101916001016113cb565b505050509392505050565b600082601f830112611402578081fd5b6040516040810181811067ffffffffffffffff8211171561141f57fe5b8060405250808385604086011115611435578384fd5b835b6002811015611456578135835260209283019290910190600101611437565b509195945050505050565b600082601f830112611471578081fd5b61147d83601f8461139e565b9392505050565b600082601f830112611494578081fd5b813567ffffffffffffffff8111156114a857fe5b6114bb601f8201601f1916602001611d3c565b8181528460208386010111156114cf578283fd5b816020850160208301379081016020019190915292915050565b60008060c083850312156114fb578182fd5b83601f840112611509578182fd5b6115158460058561139e565b9460a0939093013593505050565b600060208284031215611534578081fd5b8151801515811461147d578182fd5b600060208284031215611554578081fd5b813561147d81611d7b565b600060208284031215611570578081fd5b813567ffffffffffffffff811115611586578182fd5b61159284828501611484565b949350505050565b60008060008385036105008112156115b0578182fd5b610100808212156115bf578283fd5b6040915081516060810167ffffffffffffffff82821081831117156115e057fe5b8185526115ed8a8a6113f2565b835289605f8a01126115fd578586fd5b6002915061160d6113ac83611d60565b80868b0160c08c018d81111561162157898afd5b895b86811015611649576116358f846113f2565b855260209094019391890191600101611623565b5082602088015261165a8e826113f2565b89880152505050508297506116718a858b01611461565b96506104e0890135945080851115611687578586fd5b5050505061169786828701611484565b9150509250925092565b6000602082840312156116b2578081fd5b813562ffffff8116811461147d578182fd5b6000602082840312156116d5578081fd5b5035919050565b6000602082840312156116ed578081fd5b5051919050565b60008060408385031215611706578182fd5b50508035926020909101359150565b60008060408385031215611727578182fd5b82359150602083013567ffffffffffffffff811115611744578182fd5b61175085828601611484565b9150509250929050565b6000806000806080858703121561176f578182fd5b84519350602085015161178181611d7b565b604086015190935063ffffffff8116811461179a578283fd5b6060959095015193969295505050565b8060005b60028110156117cd5781518452602093840193909101906001016117ae565b50505050565b60008151808452815b818110156117f8576020818501810151868301820152016117dc565b818111156118095782602083870101525b50601f01601f19169290920160200192915050565b9283526020830191909152604082015260600190565b6001600160a01b039384168152919092166020820152604081019190915260600190565b6001600160a01b03929092168252602082015260400190565b6104e0810161188082876117aa565b60408083018660005b60028110156118b05761189d8383516117aa565b9183019160209190910190600101611889565b505050506118c160c08301856117aa565b61010082018360005b601f8110156118e95781518352602092830192909101906001016118ca565b50505095945050505050565b90815260200190565b6001600160a01b0391909116815260200190565b60006020825261147d60208301846117d3565b6020808252601c908201527f4f72646572206d757374206e6f7420626520636f6d706c657465642e00000000604082015260600190565b60208082526031908201527f4f72646572206d75737420626520636c61696d6564206265666f72652069742060408201527031b0b71031329031b7b6b83632ba32b21760791b606082015260800190565b6020808252600f908201526e496e76616c6964206d6f64756c757360881b604082015260600190565b60208082526011908201527056656e6d6f20696420746f6f206c6f6e6760781b604082015260600190565b60208082526042908201527f52656365697665722061646472657373206d757374206d61746368207468652060408201527f6f6666636861696e207061796d656e7420726563656976657220616464726573606082015261399760f11b608082015260a00190565b6020808252602c908201527f496e76616c69642066696e616c207374617465206f66207061636b656420627960408201526b1d195cc81a5b88195b585a5b60a21b606082015260800190565b6020808252602d908201527f416d6f756e74206d7573742062652067726561746572207468616e207468652060408201526c37b93232b91030b6b7bab73a1760991b606082015260800190565b6020808252601f908201527f4f726465722068617320616c7265616479206265656e20636c61696d65642e00604082015260600190565b60208082526011908201527013dd995c999b1bddc819195d1958dd1959607a1b604082015260600190565b6020808252600d908201526c24b73b30b634b210383937b7b360991b604082015260600190565b81516001600160a01b03908116825260208084015182169083015260408084015162ffffff16908301526060808401518216908301526080808401519083015260a0838101519083015260c0808401519083015260e09283015116918101919091526101000190565b6000602080835283518184015280840151604084015260408401516101006060850152611c256101208501826117d3565b905060608501511515608085015266ffffffffffffff60808601511660a085015260a085015160c08501845b6003811015611c6e57825182529184019190840190600101611c51565b50919695505050505050565b81516001600160a01b0390811682526020808401518216908301526040808401519083015260608084015162ffffff1690830152608092830151169181019190915260a00190565b62ffffff91909116815260200190565b600084825260606020830152611ceb60608301856117d3565b9050826040830152949350505050565b600086825285602083015260a06040830152611d1a60a08301866117d3565b93151560608301525066ffffffffffffff919091166080909101529392505050565b60405181810167ffffffffffffffff81118282101715611d5857fe5b604052919050565b600067ffffffffffffffff821115611d7457fe5b5060200290565b6001600160a01b0381168114610ede57600080fdfea2646970667358221220a6eb9f42b4eb1c09084540b25edf3c79def890786b8e38590219ff3eca1120fb64736f6c63430007060033",
  "linkReferences": {},
  "deployedLinkReferences": {}
}